:100000000C9434000C943E000C943E000C943E0082
:100010000C943E000C943E000C943E000C943E0068
:100020000C943E000C943E000C943E000C943E0058
:100030000C943E000C943E000C943E000C943E0048
:100040000C943E000C943E000C943E000C943E0038
:100050000C943E000C943E000C943E000C943E0028
:100060000C943E000C943E0011241FBECFEFD8E04C
:10007000DEBFCDBF0E9440000C9462000C940000D3
:1000800084B1886284B92498509A589A81E085BDD9
:100090008CB580658CBD80E358988EBD0DB407FE8D
:1000A000FDCF9EB5589A823359F08F5F2FEF39E616
:1000B00098E1215030409040E1F700C00000ECCFC3
:0800C00080E3F4CFF894FFCFB8
:00000001FF
