:100000000C9434000C943E000C943E000C943E0082
:100010000C943E000C943E000C943E000C943E0068
:100020000C943E000C943E000C943E000C943E0058
:100030000C943E000C943E000C943E000C943E0048
:100040000C943E000C943E000C943E000C943E0038
:100050000C943E000C943E000C943E000C943E0028
:100060000C943E000C943E0011241FBECFEFD8E04C
:10007000DEBFCDBF0E9440000C946C000C940000C9
:10008000519A8091C10088608093C1008091C20024
:1000900086608093C2008091C2008E7F8093C200F0
:1000A00087E690E09093C5008093C40080E3909130
:1000B000C00095FFFCCF8093C600823359F08F5F5C
:1000C0002FEF39E698E1215030409040E1F700C031
:0C00D0000000EDCF80E3F4CFF894FFCFE8
:00000001FF
