:100000000C9483000C94B4000C94B4000C94B400D1
:100010000C94B4000C94B4000C94B4000C94B40090
:100020000C94B4000C94B4000C94B4000C94B40080
:100030000C94B4000C94B4000C94B4000C94B40070
:100040000C94B4000C946A020C94B4000C94B400A8
:100050000C94B4000C94B4000C94B4000C94C00143
:100060000C94B4000C9434020C940A020C94B40066
:100070000C94B4000C94B4000C94B4000C94B40030
:100080000C94B4000C94B4000C94B4000C94B40020
:100090000C94B4000C94B4000C94B4000C94B40010
:1000A0000C94B4000C94B4000C94B4000C94B40000
:1000B0000C94B4000C94B4000C94B4000C94B400F0
:1000C0000C94B4000C94B4000C94B4000C94B400E0
:1000D0000C94B4000C94B4000C94B4000C94B400D0
:1000E0000C94B4000C9403010C94C7000C94860289
:1000F0000C94A0010C9453010C9425010C9417014D
:100100000C94F400860211241FBECFEFD1E2DEBFB3
:10011000CDBF00E00CBF12E0A0E0B2E0EAE7FAE0F9
:1001200000E00BBF02C007900D92A631B107D9F7CE
:1001300022E0A6E1B2E001C01D92A73CB207E1F7C0
:1001400010E0C3E8D0E000E006C021970109802F4D
:10015000FE010E943305C238D10780E00807A9F7E5
:100160000E94B3020C943B050C94000080E098E0E0
:1001700023EC30E01E9BFECFF9013197F1F7880F99
:100180001E9981601E99FECF9150A1F70895AF92FC
:10019000BF92CF92DF92EF92FF920F931F93CF9374
:1001A000DF936C017B018B01040F151FEB015E01D6
:1001B000AE18BF08C017D10759F06991D601ED916B
:1001C000FC910190F081E02DC6011995892B79F7FA
:1001D000C501DF91CF911F910F91FF90EF90DF90BC
:1001E000CF90BF90AF900895FC01538D448D252F83
:1001F00030E0842F90E0821B930B541710F0CF96C1
:10020000089501970895FC01918D828D981761F0F2
:10021000A28DAE0FBF2FB11D5D968C91928D9F5F09
:100220009F73928F90E008958FEF9FEF0895FC01E8
:10023000918D828D981731F0828DE80FF11D858D9B
:1002400090E008958FEF9FEF0895FC01918D228D2E
:10025000892F90E0805C9F4F821B91098F739927B3
:100260000895FC01A48DA80FB92FB11DA35ABF4F4B
:100270002C91848D90E001968F739927848FA689A5
:10028000B7892C93A089B1898C91837080648C93F9
:10029000938D848D981306C00288F389E02D8081A8
:1002A0008F7D80830895EF92FF920F931F93CF93DA
:1002B000DF93EC0181E0888F9B8D8C8D98131AC0A1
:1002C000E889F989808185FF15C09FB7F894EE8988
:1002D000FF896083E889F9898081837080648083E5
:1002E0009FBF81E090E0DF91CF911F910F91FF9030
:1002F000EF900895F62E0B8D10E00F5F1F4F0F73D8
:100300001127E02E8C8D8E110CC00FB607FCFACF92
:10031000E889F989808185FFF5CFCE010E943101FE
:10032000F1CFEB8DEC0FFD2FF11DE35AFF4FF08263
:100330009FB7F8940B8FEA89FB8980818062CFCFC9
:10034000CF93DF93EC01888D8823B9F0AA89BB890C
:10035000E889F9898C9185FD03C0808186FD0DC0F7
:100360000FB607FCF7CF8C9185FFF2CF808185FF18
:10037000EDCFCE010E943101E9CFDF91CF910895F9
:100380001F920F920FB60F9211242F933F938F93CA
:100390009F93AF93BF938091BA029091BB02A091BB
:1003A000BC02B091BD023091B90223E0230F2D377A
:1003B00058F50196A11DB11D2093B9028093BA0290
:1003C0009093BB02A093BC02B093BD028091B50292
:1003D0009091B602A091B702B091B8020196A11D0A
:1003E000B11D8093B5029093B602A093B702B0936B
:1003F000B802BF91AF919F918F913F912F910F9034
:100400000FBE0F901F90189526E8230F0296A11D8E
:10041000B11DD2CF1F920F920FB60F9211240BB6BF
:100420000F922F933F934F935F936F937F938F938D
:100430009F93AF93BF93EF93FF9388E192E00E9465
:100440003101FF91EF91BF91AF919F918F917F917A
:100450006F915F914F913F912F910F900BBE0F9035
:100460000FBE0F901F9018951F920F920FB60F920C
:1004700011240BB60F922F938F939F93EF93FF93BB
:10048000E0912802F09129028081E0912E02F09102
:100490002F0282FD1DC09081809131028F5F8F738A
:1004A00020913202821741F0E0913102F0E0E85EE3
:1004B000FD4F958F80933102FF91EF919F918F9126
:1004C0002F910F900BBE0F900FBE0F901F9018959D
:1004D0008081F2CF1F920F920FB60F9211248F934B
:1004E0009F9380911602882379F084E085BD8091E6
:1004F000160291E08927809316029F918F910F90A9
:100500000FBE0F901F90189583E0F0CFE8E1F2E066
:100510001382128288EE93E0A0E0B0E0848395839A
:10052000A683B78384E092E09183808385EC90E09A
:100530009587848784EC90E09787868780EC90E0AD
:10054000918B808B81EC90E0938B828B82EC90E09E
:10055000958B848B86EC90E0978B868B118E128E18
:10056000138E148E0895CF93DF93CDB7DEB7A19786
:100570000FB6F894DEBF0FBECDBF279A83E084BDCF
:1005800085BD8FEF87BD109280008DE08093810044
:1005900088E09DE3909389008093880080916F00AC
:1005A0008D7F80936F007894E0912802F09129026A
:1005B00082E08083E0912402F09125021082E09194
:1005C0002602F09127028FEC808310923002E09196
:1005D0002C02F0912D0286E08083E0912A02F091B6
:1005E0002B02808180618083E0912A02F0912B02AE
:1005F000808188608083E0912A02F0912B028081C3
:1006000080688083E0912A02F0912B0280818F7DA7
:1006100080838BE9282E8FE0382E812C90E8992E4C
:100620002AE0422E512C612C712C33E0B32EAA24E7
:10063000A394269A2E98C1010197F1F72E9A8BE97F
:1006400090E00197F1F726981E99FECF1E9BFECFF2
:100650001E99FECF0E94B6008093BE020E94B60093
:100660008093BF020E94B6008093C0020E94B60031
:100670008093C1020E94B6008093C2028091BE02A4
:100680009091BF029827892798279093C40280935E
:10069000C3026091C0027091C10276276727762756
:1006A0007093C6026093C502613283E0780708F454
:1006B00060C0F401E61BF70BBF01072E000C880B8E
:1006C000990B0E945C0420E030E040E251E40E947B
:1006D000E8036B017C01209184003091850050E09B
:1006E00040E019A28E010F5D1F4FCA01B901A3019D
:1006F00092010E941105605DF80162938F0121153E
:1007000031054105510589F7309761F001900020CE
:10071000E9F73197AF01401B510BB80188E192E036
:100720000E94C70042E050E062E172E088E192E09E
:100730000E94C70020E030E040E252E4C701B60169
:100740000E940C051816D4F48091170281112FC055
:10075000A0921602B5BC1092850010928400F3ECB2
:10076000F4BD80916F00826080936F00A0921702A9
:1007700060CF90E080E00E945A04A5CF20E030E0F6
:1007800040E252E4C701B6010E94E30318160CF4DC
:1007900050CF80911702882309F44BCFB4BC8091CD
:1007A0006F008D7F80936F001092170242CF20E080
:1007B00030E040E252E4C701B6010E94E30318169C
:1007C0000CF437CFEBCF0E94970408F481E0089532
:1007D0000E94FC030C94D2040E94CB0458F00E94A7
:1007E000C40440F029F45F3F29F00C94BB0451117C
:1007F0000C9406050C94C1040E94E30468F3992349
:10080000B1F3552391F3951B550BBB27AA2762170C
:100810007307840738F09F5F5F4F220F331F441F19
:10082000AA1FA9F335D00E2E3AF0E0E832D091504D
:100830005040E695001CCAF72BD0FE2F29D0660F3A
:10084000771F881FBB1F261737074807AB07B0E87D
:1008500009F0BB0B802DBF01FF2793585F4F3AF083
:100860009E3F510578F00C94BB040C9406055F3F45
:10087000E4F3983ED4F3869577956795B795F79509
:100880009F5FC9F7880F911D9695879597F90895F1
:10089000E1E0660F771F881FBB1F6217730784078D
:1008A000BA0720F0621B730B840BBA0BEE1F88F79C
:1008B000E0950895E89409C097FB3EF490958095E3
:1008C000709561957F4F8F4F9F4F9923A9F0F92F16
:1008D00096E9BB279395F695879577956795B79594
:1008E000F111F8CFFAF4BB0F11F460FF1BC06F5F7A
:1008F0007F4F8F4F9F4F16C0882311F096E911C08C
:10090000772321F09EE8872F762F05C0662371F0AC
:1009100096E8862F70E060E02AF09A95660F771FC0
:10092000881FDAF7880F9695879597F90895990F9C
:100930000008550FAA0BE0E8FEEF16161706E807A9
:10094000F907C0F012161306E407F50798F0621BCA
:10095000730B840B950B39F40A2661F0232B242B9F
:10096000252B21F408950A2609F4A140A6958FEFBE
:10097000811D811D089597F99F6780E870E060E010
:1009800008959FEF80EC089500240A941616170628
:1009900018060906089500240A9412161306140670
:1009A00005060895092E0394000C11F4882352F0D3
:1009B000BB0F40F4BF2B11F460FF04C06F5F7F4F8B
:1009C0008F4F9F4F089557FD9058440F551F59F072
:1009D0005F3F71F04795880F97FB991F61F09F3F2C
:1009E00079F087950895121613061406551FF2CF55
:1009F0004695F1DF08C0161617061806991FF1CFA5
:100A000086957105610508940895E894BB276627CB
:100A10007727CB0197F908950E94970408F48FEF88
:100A20000895A1E21A2EAA1BBB1BFD010DC0AA1F2F
:100A3000BB1FEE1FFF1FA217B307E407F50720F047
:100A4000A21BB30BE40BF50B661F771F881F991FC2
:100A50001A9469F760957095809590959B01AC010B
:100A6000BD01CF010895EE0FFF1F881F8BBF0790B8
:0A0A7000F691E02D1994F894FFCFE1
:100A7A00000000005301C700F400A0012501030192
:060A8A0017010D0A000037
:00000001FF
