:100000000C9472000C947E000C947E000C947E0084
:100010000C947E000C947E000C947E000C947E0068
:100020000C947E000C947E000C947E000C947E0058
:100030000C947E000C947E000C947E000C947E0048
:100040000C947E000C947E000C947E000C947E0038
:100050000C947E000C947E000C947E000C947E0028
:100060000C947E000C9480000C947E000C947E0016
:100070000C947E000C947E000C947E000C947E0008
:100080000C947E000C947E000C947E000C947E00F8
:100090000C947E000C947E000C947E000C947E00E8
:1000A0000C947E000C947E000C947E000C947E00D8
:1000B0000C947E000C947E000C947E000C947E00C8
:1000C0000C947E000C947E000C947E000C947E00B8
:1000D0000C947E000C947E000C947E000C947E00A8
:1000E0000C947E0011241FBECFEFD1E2DEBFCDBF46
:1000F00000E00CBF0E9496000C94BF000C9400001E
:100100001F920F920FB60F9211248F939F9380919D
:10011000C6008B3621F480918400909185009F91D8
:100120008F910F900FBE0F901F9018958091C10076
:1001300088698093C1008091C20086628093C2006A
:100140008091C2008E7F8093C2001092C5001092F1
:10015000C40078948091810089608093810010921E
:100160008500109284008091C00085FFFCCF81E65D
:100170008093C6008091840090918500FFCFF89411
:02018000FFCFAF
:00000001FF
