:020000040000FA
:100000000C94F2000C9423010C9487010C940102CF
:100010000C94A1020C943B030C9423010C94230137
:100020000C9423010C9423010C9423010C942301C0
:100030000C9423010C9423010C9423010C942301B0
:100040000C9423010C9490030C9423010C94230131
:100050000C9423010C9423010C9423010C94230190
:100060000C9423010C9423010C9423010C94230180
:100070000C9423010C9423010C9423010C94230170
:100080000C9423010C9423010C9423010C94230160
:100090000C9423010C9423010C9423010C94230150
:1000A0000C9423010C9423010C9423010C94230140
:1000B0000C9423010C9423010C9423010C94230130
:1000C0000C9423010C9423010C9423010C94230120
:1000D0000C9423010C9423010C9423010C94230110
:1000E0000C9423010C94AC0300407A10F35A00A046
:1000F000724E18090010A5D4E80000E876481700F1
:1001000000E40B54020000CA9A3B000000E1F50530
:10011000000080969800000040420F000000A0867A
:1001200001000000102700000000E80300000000AC
:100130006400000000000A00000000000100000050
:1001400000002C76D888DC674F0823DFC1DFAE596A
:10015000E1B1B796E5E3E453C63AE651997696E8FD
:10016000E6C28426EB898C9B62ED407C6FFCEFBC81
:100170009C9F40F2BAA56FA5F490055A2AF75C93AC
:100180006B6CF9676DC11BFCE0E40D47FEF520E6E2
:10019000B500D0ED902E0300943577050080841EC5
:1001A000080000204E0A000000C80C333333330F20
:1001B000986E12831141EF8D2114893BE65516CFBD
:1001C000FEE6DB18D1844B381BF77C1D901DA4BBC9
:1001D000E424203284725E228100C9F124ECA1E57E
:1001E0003D27AC0311241FBECFEFD1E2DEBFCDBF50
:1001F00000E00CBF12E0A0E0B2E0E2EFF4E100E0CA
:100200000BBF02C007900D92AC31B107D9F722E0C5
:10021000ACE1B2E001C01D92A733B207E1F710E0F4
:10022000C2EFD0E000E006C021970109802FFE0157
:100230000E946F0AC13FD10780E00807A9F70E941A
:10024000BD030C94770A0C940000F89482B9479A85
:100250004698459A4598789412B811B84798469AA6
:10026000459A45980799FCCF8FEF81B985E08A952B
:10027000F1F700000895F89482B988B18F7388B9B6
:10028000459A4598789412B811B8469A459A459877
:100290000799FCCF8FEF81B985E08A95F1F70000CF
:1002A00008950F931F93CF93DF938C01862F80685F
:1002B0000E943B01E8018991882319F00E942501E1
:1002C000FACFDF91CF911F910F910895FF920F9375
:1002D0001F93CF93DF9300D000D0CDB7DEB7F42EBD
:1002E0008E010F5F1F4F22E046E00E94D5056F2D63
:1002F000C8010E94510126960FB6F894DEBF0FBECA
:10030000CDBFDF91CF911F910F91FF9008951F9264
:100310000F920FB60F9211240BB60F922F933F93AB
:100320004F935F936F937F938F939F93AF93BF93FD
:10033000EF93FF938091200281115EC0499925C0FF
:100340006091050260956093050280E091E00E9453
:100350004C08809105026BE08F3F81F586E192E0C9
:100360000E9451016DE486E192E00E94510160918A
:10037000010270910202809103029091040246E40E
:100380000E94660181E0809320028FED9EE201973A
:10039000F1F700C00000FF91EF91BF91AF919F91E5
:1003A0008F917F916F915F914F913F912F910F901E
:1003B0000BBE0F900FBE0F901F90189584E192E036
:1003C0000E9451016DE484E192E00E94510126E611
:1003D00036E646EE5FE36091010270910202809181
:1003E0000302909104020E94020A20E030E040E003
:1003F00052E40E946808C3CF499BC7CF10922002E5
:10040000C4CF1F920F920FB60F9211240BB60F920A
:10041000CF92DF92EF92FF922F933F934F935F9390
:100420006F937F938F939F93AF93BF93EF93FF93BC
:1004300080912102811180C04A994BC020E030E0B8
:1004400040E05FE36091010270910202809103023B
:10045000909104020E9468086B017C0120E030E06A
:1004600040E252E40E94FD0918160CF44FC0C092FD
:100470000102D0920202E0920302F0920402409143
:10048000010250910202609103027091040290E017
:1004900080E00E945A0880910502811144C026E63E
:1004A00036E646EE5FE360910102709102028091B0
:1004B0000302909104020E94020A20E030E040E032
:1004C00052E40E94680846E40E94660181E080933D
:1004D00021028FED9EE20197F1F700C00000FF912D
:1004E000EF91BF91AF919F918F917F916F915F91AC
:1004F0004F913F912F91FF90EF90DF90CF900F9011
:100500000BBE0F900FBE0F901F90189580E090E0EB
:10051000A0E2B2E48093010290930202A09303024E
:10052000B0930402ACCF60910102709102028091FD
:10053000030290910402C7CF4A9BCBCF10922102B5
:10054000C8CF1F920F920FB60F9211240BB60F92C5
:10055000CF92DF92EF92FF922F933F934F935F934F
:100560006F937F938F939F93AF93BF93EF93FF937B
:100570008091220281117AC04B9949C020E030E07D
:1005800040E05FE3609101027091020280910302FA
:10059000909104020E9467086B017C0120E030E02A
:1005A000A9010E94D40887FD4FC0C0920102D092D9
:1005B0000202E0920302F092040240910102509183
:1005C0000202609103027091040290E080E00E94B8
:1005D0005A0880910502811140C026E636E646EEB3
:1005E0005FE3609101027091020280910302909199
:1005F00004020E94020A20E030E040E052E40E943F
:10060000680846E40E94660181E0809322028FED33
:100610009EE20197F1F700C00000FF91EF91BF91BA
:10062000AF919F918F917F916F915F914F913F918A
:100630002F91FF90EF90DF90CF900F900BBE0F9017
:100640000FBE0F901F901895109201021092020297
:100650001092030210920402B0CF609101027091D7
:1006600002028091030290910402CBCF4B9BCFCF2B
:1006700010922202CCCF1F920F920FB60F9211242C
:100680000BB60F922F933F934F935F936F937F938C
:100690008F939F93AF93BF93EF93FF938091230228
:1006A000811139C0649917C080911D02882361F1BE
:1006B00083E084BD80916F008D7F80936F001092E6
:1006C0001E0210921D026DE080E192E00E94510135
:1006D00081E0809323028FED9EE20197F1F700C045
:1006E0000000FF91EF91BF91AF919F918F917F910A
:1006F0006F915F914F913F912F910F900BBE0F9093
:100700000FBE0F901F90189581E080931D026DE041
:1007100088E192E0DBCF649BDECF10922302DBCF37
:100720001F920F920FB60F9211248F939F93809177
:100730001C02882379F084E085BD80911C0291E041
:10074000892780931C029F918F910F900FBE0F906D
:100750001F90189583E0F0CFE4E2F2E0128213825A
:1007600014821582168217821086118612861386CD
:100770001486158611821082089583E084BD85BD9C
:100780008FE787BD109280008DE08093810084E820
:100790009EE1909389008093880080916F008D7F07
:1007A00080936F009FEF91B987B1806E87B984B154
:1007B000806C84B92E9A8AB1807F8AB98BB18F60A0
:1007C0008BB96C98749A8CB1829581708093230256
:1007D00089B183FB882780F98093220289B182FB4B
:1007E000882780F98093210289B186958170809352
:1007F000200289B1817080931F02909369008091DB
:100800006A00836080936A008DB38F618DBB78949A
:100810008FE19EE40197F1F700C0000088E30E9499
:100820003B018CE00E943B0186E00E943B0181E09D
:100830000E943B0160E086E092E00E94510160E48A
:100840008AE092E00E9451016DE080E192E00E9416
:1008500051018AE80E943B018FED0E9425018CEC3A
:100860000E943B018FED0E94250180E091E00E94F3
:10087000440890910502891709F44BC110920502B2
:100880006BE084E192E00E9451016DE484E192E02A
:100890000E94510160910102709102028091030255
:1008A000909104022091050221110CC026E636E643
:1008B00046EE5FE30E94020A20E030E040E052E4AE
:1008C0000E94680846E40E94660139E0232E4FE149
:1008D000E42E4FE3F42ECC24CA9452E0D52EC3E08C
:1008E000D1E063EC362E10922A0210922B02109265
:1008F0002C0210922D022AE0A22EB12C9FE728E3B1
:1009000041E0915020404040E1F700C000007FB737
:10091000B0919000A09191002091980030919900A1
:100920001092900020929100F0929900E09298002D
:10093000F894269A2E981092950010929400C19ADD
:10094000C19BFECF2E9AD0929900C0929800269813
:100950001E99FECF1E9BFECF1E99FECFE2E3F2E072
:1009600060E087E090E01E9BFECF10929500109211
:100970009400C19A1E99FECF48B341FB002700F9AD
:1009800010E0A801082E01C0440F0A94EAF7642B76
:10099000019748F7619382E0E733F80709F71E9B58
:1009A000FECF269A2E9AB0939000A0939100309398
:1009B0009900209398007FBF809124029091250296
:1009C0008130910509F0C0C06091340280913502F8
:1009D00067FFA8C070E0762F662766277F77682BB1
:1009E00090E080E00E944B0920E030E040E251E4DA
:1009F0000E94D90890586093260270932702809332
:100A00002802909329026091320270913302762776
:100A10006727762790E080E00E944B0920E030E0D5
:100A200040E251E40E94D90860932E0270932F0295
:100A30008093300290933102209126023091270258
:100A4000409128025091290260912A0270912B0254
:100A500080912C0290912D020E94680860932A02D6
:100A600070932B0280932C0290932D0221E0A21A06
:100A7000B10809F043CF20E030E040E251E40E94A9
:100A8000D90860932A0270932B0280932C029093D2
:100A90002D022091050221110CC026E636E646EE15
:100AA0005FE30E94020A20E030E040E052E40E944E
:100AB000680844E00E94660140902A0250902B0290
:100AC00060902C0270902D028090010290900202A2
:100AD000A0900302B0900402A3019201C501B401E9
:100AE0000E94D40887FF50C080911D02882309F41A
:100AF000FACED0931C02C5BD1092850010928400DE
:100B000034BC80916F00826080936F00D0931E028E
:100B1000EACE6BE086E192E00E9451016DE486E14D
:100B200092E0B6CE60913402709135027627672745
:100B3000762790E080E00E944B0920E030E040E220
:100B400051E40E94D90857CF892B09F05CCF6091FE
:100B5000350270E090E080E00E944D0920E030E036
:100B600040E251E40E94D9082B013C01609134021B
:100B700070E090E080E00E944D099B01AC01C30150
:100B8000B2010E94680837CFA3019201C501B401E8
:100B90000E94FD0987FDA7CEC4BD80916F008D7FA7
:100BA00080936F0010921E029ECEEF920F931F93C0
:100BB000CF93DF93E80134E047FD34E1042E000CCD
:100BC000550B57FF03C0519541955109E32E022F54
:100BD000242FAE010E94F305CE01DF91CF911F912A
:100BE0000F91EF9008958F929F92AF92BF92CF9204
:100BF000DF92EF92FF920F931F93CF93DF9300D07A
:100C000000D000D0CDB7DEB76A01F22EB02E102F83
:100C1000FBE3AF2EA01608F41BE31F5F012F27E0B4
:100C2000AE014F5F5F4F0E946C07BC018981982F16
:100C30009970913009F44EC09BE2E1FC04C09E2DF6
:100C40009170E0FC49C05E2D5071E82FE87083FF81
:100C500055C084E0911101C083E0EF2DE81B8F1592
:100C600008F0E0E0D6018E2F20E25523C9F1992348
:100C700029F0D6019C93C60101966C0196012D5F67
:100C80003F4FE2FE33C08EE4D6018C9391E411967F
:100C90009C93119712968C93D9018E2F90E281111B
:100CA0002AC0E20FF32FF11D10828EEF9FEF2996DD
:100CB0000FB6F894DEBF0FBECDBFDF91CF911F916D
:100CC0000F91FF90EF90DF90CF90BF90AF909F90EB
:100CD0008F9008959DE2B7CF90E2B5CF2D938150CC
:100CE0008111FCCFCE0ED11CE0E0C1CF8EE6D60143
:100CF0008C9391E6CCCF9D938150D1CF482F4470F7
:100D000082FF3DC084E0911101C083E08F1510F493
:100D1000EF2DE81BD6018E2F20E2552309F19923F0
:100D200029F0D6019C93C60101966C0196012D5FB6
:100D30003F4FE2FE1BC089E4D6018C938EE41196EE
:100D40008C93119786E412968C93D9018E2F90E2A2
:100D5000882309F4A6CF9D938150FACF2D9381501B
:100D60008111FCCFCE0ED11CE0E0D9CF89E6D601AF
:100D70008C938EE611968C93119786E6E4CF9B01B7
:100D800077FF02C030E020E0A1E0B0E0911102C0A6
:100D9000B0E0A0E0F9013196AE0FBF1F8B2C912C73
:100DA000BB2009F461C05401EFEFAE1ABE0AAA0DD0
:100DB000BB1DFA161B0619F014F04F2D4A1B5111DA
:100DC00088C0E3FC59C07601A42FB0E2A1114FC046
:100DD000C40ED11C992309F45BC040E0D6011196E2
:100DE000F60190836D01552309F448C0012F060FC9
:100DF0009A81582F507184FF03C0913309F4015038
:100E000010160CF047C0093008F008E0EEE2FE2EA4
:100E10005B01A01AB10885019194819491082F3F3C
:100E2000320729F4D601FC92F60131966F01621760
:100E3000730794F1021713077CF5DB01A21BB30BB8
:100E4000AA24A394B12CAC0EBD1EAA0DBB1D1196F5
:100E50008C9121503109D601119628153905F4F0ED
:100E6000F60180836D01DBCFB12CA12CA0CFF7015F
:100E7000B1937F01A150AACF9111B0CFD601942F89
:100E800050E302C05D9391509111FCCFC40ED11C70
:100E900040E0ACCF01E0BACF80E3DBCF621773074D
:100EA00031F4963388F4953311F4552369F0F60143
:100EB0008083FD01842F90E2811108C0A40FB11D31
:100EC0001C9290E080E0F3CE81E3F1CF91938150CA
:100ED000F3CF911183CF8ACF283008F027E0332752
:100EE000DA01990F311D87FD91600096610571054A
:100EF00039F432602E5F3D9330E32A95E1F708958F
:100F00009F3F30F080387105610509F03C5F3C5F20
:100F10003D93913008F08068911DDF93CF931F932C
:100F20000F93FF92EF92192F987F9695E92F969540
:100F30009695E90FFF27EE5BFE4F99273327EE24A6
:100F4000FF24A701E70105900894079428F4360FC1
:100F5000E71EF81E491F511D660F771F881F991F36
:100F60000694A1F70590079428F4E70EF81E491F90
:100F7000561FC11D770F881F991F661F0694A1F782
:100F80000590079428F4F80E491F561FC71FD11D5E
:100F9000880F991F661F771F0694A1F70590079485
:100FA00020F4490F561FC71FD81F990F661F771FC0
:100FB000881F0694A9F784911095177041F0D69573
:100FC000C79557954795F794E7941A95C1F7E8EEBA
:100FD000F0E0689415901591359165919591059083
:100FE0007FE27395E118F10A430B560BC90BD00948
:100FF000C0F7E10CF11E431F561FC91FD01D7EF420
:10100000703311F48A95E6CFE894015030F0080F60
:101010000AF40027021708F4202F2395022F7A33B1
:1010200028F079E37D932A95E9F710C07D932A95FE
:1010300089F6069497956795379517951794E11853
:10104000F10A430B560BC90BD00998F023957E91FA
:1010500073957A3308F070E37C932013B8F77E9190
:1010600070617D9330F0839571E37D9370E32A95F1
:10107000E1F71124EF90FF900F911F91CF91DF9135
:10108000992787FD90950895F999FECF92BD81BD6E
:10109000F89A992780B50895262FF999FECF1FBA9F
:1010A00092BD81BD20BD0FB6F894FA9AF99A0FBE91
:1010B00001960895242F0E944D08252F0E944D0867
:1010C0000C9462080E944C08272F0C944D0850582D
:1010D000BB27AA270E947F080C94C3090E94B50968
:1010E00038F00E94BC0920F039F49F3F19F426F42F
:1010F0000C94B2090EF4E095E7FB0C94AC09E92FCF
:101100000E94D40958F3BA1762077307840795073A
:1011100020F079F4A6F50C94F6090EF4E0950B2E68
:10112000BA2FA02D0B01B90190010C01CA01A00139
:101130001124FF27591B99F0593F50F4503E68F194
:101140001A16F040A22F232F342F4427585FF3CFD5
:10115000469537952795A795F0405395C9F77EF4A6
:101160001F16BA0B620B730B840BBAF09150A1F0EF
:10117000FF0FBB1F661F771F881FC2F70EC0BA0F75
:10118000621F731F841F48F4879577956795B795FD
:10119000F7959E3F08F0B0CF9395880F08F09927F8
:1011A000EE0F9795879508950E94880908F481E0CD
:1011B00008950E94ED080C94C3090E94BC0958F0E0
:1011C0000E94B50940F029F45F3F29F00C94AC0966
:1011D00051110C94F7090C94B2090E94D40968F3D8
:1011E0009923B1F3552391F3951B550BBB27AA27E0
:1011F00062177307840738F09F5F5F4F220F331F1A
:10120000441FAA1FA9F335D00E2E3AF0E0E832D0E1
:1012100091505040E695001CCAF72BD0FE2F29D0E4
:10122000660F771F881FBB1F261737074807AB07B6
:10123000B0E809F0BB0B802DBF01FF2793585F4F2B
:101240003AF09E3F510578F00C94AC090C94F709E4
:101250005F3FE4F3983ED4F3869577956795B7950D
:10126000F7959F5FC9F7880F911D9695879597F918
:101270000895E1E0660F771F881FBB1F6217730791
:101280008407BA0720F0621B730B840BBA0BEE1FA6
:1012900088F7E0950895E89409C097FB3EF490958F
:1012A0008095709561957F4F8F4F9F4F9923A9F03F
:1012B000F92F96E9BB279395F695879577956795CE
:1012C000B795F111F8CFFAF4BB0F11F460FF1BC012
:1012D0006F5F7F4F8F4F9F4F16C0882311F096E9A5
:1012E00011C0772321F09EE8872F762F05C0662353
:1012F00071F096E8862F70E060E02AF09A95660F0C
:10130000771F881FDAF7880F9695879597F90895C4
:10131000990F0008550FAA0BE0E8FEEF1616170606
:10132000E807F907C0F012161306E407F50798F06E
:10133000621B730B840B950B39F40A2661F0232B87
:10134000242B252B21F408950A2609F4A140A69503
:101350008FEF811D811D089597F99F6780E870E0E8
:1013600060E008959FEF80EC089500240A9416161B
:10137000170618060906089500240A941216130683
:10138000140605060895092E0394000C11F4882311
:1013900052F0BB0F40F4BF2B11F460FF04C06F5F2D
:1013A0007F4F8F4F9F4F089557FD9058440F551F03
:1013B00059F05F3F71F04795880F97FB991F61F0D7
:1013C0009F3F79F087950895121613061406551F4E
:1013D000F2CF4695F1DF08C0161617061806991FBA
:1013E000F1CF86957105610508940895E894BB27AF
:1013F00066277727CB0197F908950E94880908F49A
:101400008FEF08950E94150A0C94C3090E94B50934
:1014100038F00E94BC0920F0952311F00C94AC091F
:101420000C94B20911240C94F7090E94D40970F3AA
:10143000959FC1F3950F50E0551F629FF001729F79
:10144000BB27F00DB11D639FAA27F00DB11DAA1F88
:10145000649F6627B00DA11D661F829F2227B00DD5
:10146000A11D621F739FB00DA11D621F839FA00D60
:10147000611D221F749F3327A00D611D231F849FB0
:10148000600D211D822F762F6A2F11249F57504007
:101490009AF0F1F088234AF0EE0FFF1FBB1F661F82
:1014A000771F881F91505040A9F79E3F510580F04B
:1014B0000C94AC090C94F7095F3FE4F3983ED4F325
:1014C000869577956795B795F795E7959F5FC1F7EF
:1014D000FE2B880F911D9695879597F90895EE0F2D
:1014E000FF1F881F8BBF0790F691E02D1994F89489
:1014F000FFCF010000D841FF54203D0054726967BE
:0E1500003A004F66660046004300204F6E0022
:020000040003F7
:10E000000D9489F10D94B2F10D94B2F10D94B2F129
:10E010000D94B2F10D94B2F10D94B2F10D94B2F1F0
:10E020000D94B2F10D94B2F10D94B2F10D94B2F1E0
:10E030000D94B2F10D94B2F10D94B2F10D94B2F1D0
:10E040000D94B2F10D94B2F10D94B2F10D94B2F1C0
:10E050000D94B2F10D94B2F10D94B2F10D94B2F1B0
:10E060000D94B2F10D94B2F10D94B2F10D94B2F1A0
:10E070000D94B2F10D94B2F10D94B2F10D94B2F190
:10E080000D94B2F10D94B2F10D94B2F10D94B2F180
:10E090000D94B2F10D94B2F10D94B2F10D94B2F170
:10E0A0000D94B2F10D94B2F10D94B2F10D94B2F160
:10E0B0000D94B2F10D94B2F10D94B2F10D94B2F150
:10E0C0000D94B2F10D94B2F10D94B2F10D94B2F140
:10E0D0000D94B2F10D94B2F10D94B2F10D94B2F130
:10E0E0000D94B2F141546D656761323536300041AF
:10E0F000726475696E6F206578706C6F72657220DE
:10E1000073746B3530305632206279204D4C530099
:10E11000426F6F746C6F616465723E004875683F52
:10E1200000436F6D70696C6564206F6E203D200048
:10E130004350552054797065202020203D20005FF9
:10E140005F4156525F415243485F5F3D2000415658
:10E1500052204C696243205665723D20004743437C
:10E160002056657273696F6E203D20004350552024
:10E1700049442020202020203D20004C6F7720663D
:10E18000757365202020203D20004869676820665F
:10E190007573652020203D200045787420667573D6
:10E1A00065202020203D20004C6F636B2066757336
:10E1B000652020203D20004D617220203720323024
:10E1C000313300312E362E3800342E332E350056A2
:10E1D00023202020414444522020206F7020636F70
:10E1E00064652020202020696E73747275637469E1
:10E1F0006F6E2061646472202020496E74657272B3
:10E20000757074006E6F20766563746F7200726A49
:10E210006D702020006A6D70200057686174207056
:10E220006F72743A00506F7274206E6F7420737541
:10E2300070706F72746564004D7573742062652030
:10E2400061206C6574746572002000577269747483
:10E25000696E672045450052656164696E672045B7
:10E26000450045452065727220636E743D00504F35
:10E27000525400303D5A65726F2061646472003FF1
:10E280003D43505520737461747300403D454550C3
:10E29000524F4D207465737400423D426C696E6B41
:10E2A000204C454400453D44756D70204545505215
:10E2B0004F4D00463D44756D7020464C415348001B
:10E2C000483D48656C70004C3D4C69737420492F83
:10E2D0004F20506F72747300513D51756974005234
:10E2E0003D44756D702052414D00563D73686F7707
:10E2F00020696E7465727275707420566563746FF0
:10E30000727300593D506F727420626C696E6B00BD
:10E310002A0011241FBECFEFD1E2DEBFCDBF01E046
:10E320000CBF12E0A0E0B2E0EEE1FDEF03E00BBFB6
:10E3300002C007900D92A030B107D9F712E0A0E01B
:10E34000B2E001C01D92AE30B107E1F70F9460F367
:10E350000D948DFE01E20EBF0FEF0DBF11241FBE05
:10E360000D9460F30D9400F020E030E040ED57E0B4
:10E3700005C0FA013197F1F72F5F3F4F2817390792
:10E38000C0F308959C01260F311DC901A0E0B0E043
:10E390002F5F3F4FABBFFC018791882361F08093D3
:10E3A000C6008091C00086FFFCCF8091C0008064D1
:10E3B0008093C000EACF08958DE08093C6008091DD
:10E3C000C00086FFFCCF8091C00080648093C000B5
:10E3D0008AE08093C6008091C00086FFFCCF8091C8
:10E3E000C00080648093C00008950F94C2F10F9420
:10E3F000DCF10895FC019081992359F09093C600B7
:10E400008091C00086FFFCCF8091C0008064809323
:10E41000C0003196992379F70895282F982F929567
:10E420009F70892F805D8A3308F0895F8093C600D2
:10E430008091C00086FFFCCF8091C00080648093F3
:10E44000C000822F8F70982F905D9A3308F0995FEB
:10E450009093C6008091C00086FFFCCF8091C000E1
:10E4600080648093C00008959C01FB01853691056E
:10E470001CF46330710594F0C90164E670E00F94F8
:10E480002EFE605D7F4F6093C6008091C00086FFC6
:10E49000FCCF8091C00080648093C0002B30310598
:10E4A00014F43297B4F0C90164E670E00F942EFEC4
:10E4B0006AE070E00F942EFE605D7F4F6093C600AF
:10E4C0008091C00086FFFCCF8091C0008064809363
:10E4D000C000C9016AE070E00F942EFEC0968093E0
:10E4E000C6008091C00086FFFCCF8091C000806490
:10E4F0008093C00008951F93182F8EE692EE60E07F
:10E500000F94C2F11093C6008091C00086FFFCCF2B
:10E510008091C00080648093C0000F94DCF11F9153
:10E5200008952F923F924F925F926F927F928F92B7
:10E530009F92AF92BF92CF92DF92EF92FF920F9392
:10E540001F93DF93CF93CDB7DEB762970FB6F894E2
:10E55000DEBF0FBECDBF382E622ECA01DB015C01CB
:10E560006D01772420E2222E2E010894411C511CBB
:10E570008BC081E0A81680E0B80681E0C80680E084
:10E58000D80628F0C601AA27BB270F940DF2BB2797
:10E59000AD2D9C2D8B2D0F940DF28A2D0F940DF225
:10E5A0002092C6008091C00086FFFCCF8091C00001
:10E5B00080648093C0009DE29093C6008091C0006B
:10E5C00086FFFCCF8091C00080648093C0002092C1
:10E5D000C6008091C00086FFFCCF8091C00080649F
:10E5E0008093C00019828601750188249924A1E0D6
:10E5F0003A1651F03A1620F0B2E03B1661F409C029
:10E600000BBFF701779007C0C7010F9477FE782EF4
:10E6100002C0F7017080872D0F940DF22092C60082
:10E620008091C00086FFFCCF8091C0008064809301
:10E63000C000872D8052F401EF70F0708F3520F408
:10E64000E40DF51D708204C0E40DF51D8EE280839B
:10E650000894E11CF11C011D111D0894811C911CE2
:10E6600090E18916910409F0C2CF80E190E0A0E02A
:10E67000B0E0A80EB91ECA1EDB1E198AC2010F9493
:10E68000FAF10F94DCF16A94662009F072CF629679
:10E690000FB6F894DEBF0FBECDBFCF91DF911F91B3
:10E6A0000F91FF90EF90DF90CF90BF90AF909F9031
:10E6B0008F907F906F905F904F903F902F90089534
:10E6C0002F923F924F925F926F927F928F929F9282
:10E6D000AF92BF92CF92DF92EF92FF920F931F9370
:10E6E000DF93CF93CDB7DEB7CD53D1400FB6F894BB
:10E6F000DEBF0FBECDBF01E20EBF0FEF0DBF94B75F
:10E70000F894A89514BE80916000886180936000A1
:10E7100010926000789493FF05C0E0910002F091A0
:10E7200001021995279A2F9A8091C00082608093E8
:10E73000C00080E18093C40088E18093C1000000A4
:10E74000EE24FF24870144E0A42EB12CCC24DD2448
:10E7500024C0C5010197F1F70894E11CF11C011DCB
:10E76000111D21E2E2162EE4F20620E0020720E06D
:10E77000120718F031E0C32ED12CC801B70127ECE5
:10E780003BE140E050E00F9441FE611571058105C9
:10E79000910519F485B1805885B98091C00087FD35
:10E7A00003C0C114D104A9F2A6014F5F5F4FC25E3E
:10E7B000DE4F59834883CE51D140C25EDE4F8881FF
:10E7C0009981CE51D140019711F00D9410FEC05D9A
:10E7D000DE4F19821882C053D14060E0C15DDE4F28
:10E7E0001882CF52D14088249924C35DDE4F19820C
:10E7F0001882CD52D140C05EDE4F188219821A8233
:10E800001B82C052D140CE5CDE4F188219821A8220
:10E810001B82C253D140EE24FF2487010BBFF701B6
:10E8200007911691C45CDE4F19830883CC53D14005
:10E830000D940BFEC25EDE4F28813981CE51D1404E
:10E840002130310509F52091C600C25EDE4F1982E4
:10E850001882CE51D14022C02F5F3F4F4F4F5F4FA4
:10E86000213082E138078AE7480780E0580780F0C6
:10E87000C45CDE4FE881F981CC53D140EF5FFF4F9C
:10E8800019F0EE27FF27099420E030E040E050E047
:10E890008091C00087FFE0CF2091C600C35DDE4FAE
:10E8A00048815981CD52D1404F5F5F4FC35DDE4FEC
:10E8B00059834883CD52D140213209F063C64A3092
:10E8C000510508F05FC60894811C911C53E0851621
:10E8D000910409F059C600E010E018C081E280936D
:10E8E000C6008091C00086FFFCCF8091C00080648C
:10E8F0008093C0002F5F3F4F2931310579F70F9486
:10E90000DCF10F5F1F4F0530110519F020E030E0FA
:10E91000E5CF10920A0210920B0210920C02109294
:10E920000D02109206021092070210920802109235
:10E930000902109202021092030210920402109235
:10E9400005028FEE90EE60E00F94F5F180E191EE1C
:10E9500060E00F94C2F18091C00087FFFCCF9091DE
:10E96000C600903608F09F759032B8F09093C600BC
:10E970008091C00086FFFCCF8091C00080648093AE
:10E98000C000A0E2A093C6008091C00086FFFCCF2B
:10E990008091C00080648093C000983409F4D7C18E
:10E9A0009934B8F4923409F459C1933458F490333B
:10E9B00019F1903308F4E3C59F33A1F1903409F0C5
:10E9C000DEC5BDC0953409F470C1963409F0D7C5D1
:10E9D00098C1923509F42BC2933538F49C3409F46C
:10E9E000F5C1913509F0CBC518C2963509F445C279
:10E9F000993509F0C4C567C483E792EE62E00F94CD
:10EA0000F5F110920602109207021092080210927D
:10EA1000090210920A0210920B0210920C0210923C
:10EA20000D0213C18FE792EE62E00F94F5F18FEEC5
:10EA300090EE60E00F94F5F181E291EE60E00F94CA
:10EA4000C2F187EB91EE60E00F94F5F180E391EE77
:10EA500060E00F94C2F184EE90EE60E00F94F5F167
:10EA60008FE391EE60E00F94C2F186E090E061E008
:10EA700070E00F9434F20F94DCF18DE591EE60E0DC
:10EA80000F94C2F189EC91EE60E00F94F5F18EE401
:10EA900091EE60E00F94C2F183EC91EE60E00F9490
:10EAA000F5F18CE691EE60E00F94C2F18EE10F94E7
:10EAB0000DF288E90F940DF281E00F940DF20F949E
:10EAC000DCF18BE791EE60E00F94C2F119E0E0E039
:10EAD000F0E010935700E4918E2F0F940DF20F94F5
:10EAE000DCF18AE891EE60E00F94C2F1E3E0F0E03F
:10EAF00010935700E4918E2F0F940DF20F94DCF1D8
:10EB000089E991EE60E00F94C2F1E2E0F0E0109349
:10EB10005700E4918E2F0F940DF20F94DCF188EAE8
:10EB200091EE60E00F94C2F1E1E0F0E01093570045
:10EB30001491812F0F940DF20F94DCF107CF8BE825
:10EB400092EE62E00F94F5F18BE492EE60E00F94A8
:10EB5000F5F10F94DCF100E010E019C0C8016F2D51
:10EB60000F947FFEFF2031F489E492EE60E00F9471
:10EB7000C2F10BC0F092C6008091C00086FFFCCFAE
:10EB80008091C00080648093C0000F5F1F4FC80158
:10EB900081519F41A0E0B0E0ABBFFC01F790BAE229
:10EBA000FB1621F0E2E000301E07C1F60F94DCF105
:10EBB0000F94DCF187E592EE60E00F94F5F10F948D
:10EBC000DCF1CC24DD2400E010E01EC0C8010F946D
:10EBD00077FEF82E882331F489E492EE60E00F94FA
:10EBE000C2F10BC08093C6008091C00086FFFCCFAD
:10EBF0008091C00080648093C000FE1419F00894D6
:10EC0000C11CD11C0F5F1F4FC80181519F41A0E063
:10EC1000B0E0ABBFFC01E790FAE2EF1621F022E092
:10EC20000030120799F60F94DCF10F94DCF182E6C4
:10EC300092EE60E00F94C2F1C60161E070E00F94C3
:10EC400034F20F94DCF10F94DCF110920202109276
:10EC50000302109204021092050278CE89E992EE26
:10EC600062E00F94F5F1279A2F9A16C02F9880E052
:10EC700090E0E0EDF7E03197F1F7019684369105E9
:10EC8000C1F72F9A80E090E0E0EDF7E03197F1F7DF
:10EC9000019684369105C1F78091C00087FFE6CFC9
:10ECA0008091C00087FFFCCF64C485EA92EE62E0E9
:10ECB0000F94F5F140910202509103026091040219
:10ECC0007091050281E020E10F9491F2809102029F
:10ECD00090910302A0910402B091050280509F4FD1
:10ECE000AF4FBF4F8093020290930302A0930402A0
:10ECF000B093050280509041A040B04008F426CE69
:10ED0000A4CF83EB92EE62E00F94F5F140910602FE
:10ED100050910702609108027091090280E020E1A1
:10ED20000F9491F28091060290910702A09108023F
:10ED3000B091090280509F4FAF4FBF4F80930602A2
:10ED400090930702A0930802B0930902FFCD80ECD4
:10ED500092EE62E00F94F5F183E792EE60E00F949B
:10ED6000F5F18FE792EE60E00F94F5F18BE892EE0B
:10ED700060E00F94F5F189E992EE60E00F94F5F10F
:10ED800085EA92EE60E00F94F5F183EB92EE60E09D
:10ED90000F94F5F180EC92EE60E00F94F5F187ECC2
:10EDA00092EE60E00F94F5F188ED92EE60E00F9442
:10EDB000F5F18FED92EE60E00F94F5F18AEE92EEB0
:10EDC00060E00F94F5F183E093EEBDCD87EC92EE19
:10EDD00062E00F94F5F181E40F947BF282E40F94EA
:10EDE0007BF283E40F947BF284E40F947BF285E45E
:10EDF0000F947BF286E40F947BF287E40F947BF20E
:10EE000088E40F947BF28AE40F947BF28BE40F94F6
:10EE10007BF28CE40F947BF299CD88ED92EE62E068
:10EE20000F94F5F1772473948824992409C48FED05
:10EE300092EE62E00F94F5F140910A0250910B02BC
:10EE400060910C0270910D0282E020E10F9491F22A
:10EE500080910A0290910B02A0910C02B0910D02D8
:10EE600080509F4FAF4FBF4F80930A0290930B0289
:10EE7000A0930C02B0930D0269CD8AEE92EE62E08F
:10EE80000F94F5F184EE90EE60E00F94F5F18FECC5
:10EE900091EE60E00F94F5F1662477244301CC5D98
:10EEA000DE4F19821882C452D140D401C301B695F5
:10EEB000A79597958795CA5DDE4F88839983AA8326
:10EEC000BB83C652D140CC5DDE4FA881B981C4520C
:10EED000D1401196CC5DDE4FB983A883C452D14096
:10EEE000CD0162E070E00F9434F2B0E2B093C6005E
:10EEF0008091C00086FFFCCF8091C0008064809329
:10EF0000C000EDE2E093C6008091C00086FFFCCF18
:10EF10008091C00080648093C000F0E2F093C6004E
:10EF20008091C00086FFFCCF8091C00080648093F8
:10EF3000C000CA5DDE4FE880F9800A811B81C6529D
:10EF4000D140BB27A12F902F8F2D0F940DF2CA5DBA
:10EF5000DE4F8881C652D1400F940DF2B0E2FB2EF5
:10EF6000F092C6008091C00086FFFCCF8091C00067
:10EF700080648093C0000DE30093C6008091C000C0
:10EF800086FFFCCF8091C00080648093C00010E2B7
:10EF90001093C6008091C00086FFFCCF8091C00016
:10EFA00080648093C0008BBEF3012791C65DDE4F65
:10EFB0002883CA52D140A22EBB24CC24DD2408943D
:10EFC000611C711C811C911C8BBEF3018791282E42
:10EFD0003324442455240894611C711C811C911C09
:10EFE0008BBEF3013791C55DDE4F3883CB52D140E4
:10EFF0000894611C711C811C911C8BBEF30147910C
:10F00000C45DDE4F4883CC52D140ADEFEA2EAFEF66
:10F01000FA2EAFEF0A2FAFEF1A2F6E0C7F1C801E57
:10F02000911E142D032DF22CEE24EA0CFB1C0C1D5A
:10F030001D1D0F940DF220E22093C6008091C000A8
:10F0400086FFFCCF8091C00080648093C000C65DC5
:10F05000DE4F8881CA52D1400F940DF230E23093D6
:10F06000C6008091C00086FFFCCF8091C000806404
:10F070008093C000C45DDE4F8881CC52D1400F9494
:10F080000DF240E24093C6008091C00086FFFCCFA5
:10F090008091C00080648093C000C55DDE4F888190
:10F0A000CB52D1400F940DF250E25093C6008091A4
:10F0B000C00086FFFCCF8091C00080648093C000B8
:10F0C0008FEFE8168FEFF80680E0080780E018075A
:10F0D00031F484E092EE60E00F94C2F1DFC0D80119
:10F0E000C7018070907CA070B0708050904CA040A0
:10F0F000B040D1F52FEF3FE340E050E0E222F322B1
:10F1000004231523CA5DDE4FA880B980CA80DB8046
:10F11000C652D140AE0CBF1CC01ED11EAA0CBB1CD7
:10F12000CC1CDD1C8EE092EE60E00F94C2F1BB2798
:10F13000A12F902F8F2D0F940DF28E2D0F940DF285
:10F1400030E23093C6008091C00086FFFCCF8091F2
:10F15000C00080648093C0004EE34093C60080915D
:10F16000C00086FFFCCF87C08EE09EEFA0E0B0E03D
:10F17000E822F9220A231B239CE0E91694E9F90608
:10F1800090E0090790E0190709F088C0C45DDE4FE0
:10F19000A881CC52D140EA2EFF2400E010E0102FCD
:10F1A0000F2DFE2CEE24C55DDE4FB881CB52D14031
:10F1B000EB0EF11C011D111DD601C501817090706F
:10F1C000A070B070DC0199278827E80EF91E0A1F8D
:10F1D0001B1F20EF30E040E050E0A222B322C42207
:10F1E000D52241E1AA0CBB1CCC1CDD1C4A95D1F7F1
:10F1F000EA0CFB1C0C1D1D1D81E090E0A0E0B0E0BE
:10F20000282239224A225B2235E1220C331C441C7D
:10F21000551C3A95D1F7E20CF31C041D151D57013E
:10F220006801AA0CBB1CCC1CDD1C85E192EE60E0E1
:10F230000F94C2F1C801AA27BB270F940DF2BB2778
:10F24000A12F902F8F2D0F940DF28E2D0F940DF274
:10F2500090E29093C6008091C00086FFFCCF809121
:10F26000C00080648093C000AEE3A093C60080918C
:10F27000C00086FFFCCF8091C00080648093C000F6
:10F28000C601AA27BB270F940DF2BB27AD2D9C2DDD
:10F290008B2D0F940DF28A2D0F940DF20F94DCF14B
:10F2A000CC5DDE4FE881F981C452D140F99709F471
:10F2B0004DCBF4E0EF2EF12C012D112D6E0C7F1CA7
:10F2C000801E911EF2CD83E093EE62E00F94F5F183
:10F2D0008AE192EE60E00F94C2F18091C00087FF56
:10F2E000FCCF1091C6001F751093C6008091C0001E
:10F2F00086FFFCCF8091C00080648093C0000F9493
:10F30000DCF1812F81548A3108F036C1163409F4BA
:10F3100095C0173490F4133409F44EC0143430F40B
:10F320001134F1F0123409F01DC130C0143409F465
:10F3300059C0153409F016C16BC01A3409F4C4C0A1
:10F340001B3438F4173409F48FC0183409F00AC19B
:10F35000A1C01B3409F4D2C01C3409F003C1E8C0B9
:10F360008FEF81B90DC082B1809582B980E090E0C5
:10F37000E0EDF7E03197F1F70196883C9105C1F790
:10F380008091C00087FFEFCF12B8EFC08FEF84B934
:10F390000DC085B1809585B980E090E0E0EDF7E0A3
:10F3A0003197F1F70196883C9105C1F78091C00033
:10F3B00087FFEFCF15B8D9C08FEF87B90DC088B1DF
:10F3C000809588B980E090E0E0EDF7E03197F1F7C3
:10F3D0000196883C9105C1F78091C00087FFEFCF6F
:10F3E00018B8C3C08FEF8AB90DC08BB180958BB9A7
:10F3F00080E090E0E0EDF7E03197F1F70196883C8E
:10F400009105C1F78091C00087FFEFCF1BB8ADC059
:10F410008FEF8DB90DC08EB180958EB980E090E0F0
:10F42000E0EDF7E03197F1F70196883C9105C1F7DF
:10F430008091C00087FFEFCF1EB897C08FEF80BBD1
:10F440000DC081B3809581BB80E090E0E0EDF7E0F6
:10F450003197F1F70196883C9105C1F78091C00082
:10F4600087FFEFCF11BA81C08FEF83BB0DC084B38C
:10F47000809584BB80E090E0E0EDF7E03197F1F714
:10F480000196883C9105C1F78091C00087FFEFCFBE
:10F4900014BA6BC08FEF809301010FC080910201FD
:10F4A00080958093020180E090E0E0EDF7E03197F5
:10F4B000F1F70196883C9105C1F78091C00087FF64
:10F4C000EDCF1092020151C08FEF809304010FC065
:10F4D0008091050180958093050180E090E0E0ED4A
:10F4E000F7E03197F1F70196883C9105C1F78091DB
:10F4F000C00087FFEDCF1092050137C08FEF8093DA
:10F5000007010FC08091080180958093080180E079
:10F5100090E0E0EDF7E03197F1F70196883C910536
:10F52000C1F78091C00087FFEDCF109208011DC088
:10F530008FEF80930A010FC080910B01809580931B
:10F540000B0180E090E0E0EDF7E03197F1F70196F4
:10F55000883C9105C1F78091C00087FFEDCF1092E4
:10F560000B0103C085E292EEEEC98091C00087FFD7
:10F57000FCCF8091C600EAC988E392EEE4C98CE131
:10F5800091EEE1C988249924933011F1943028F444
:10F59000913089F09230B8F408C0953061F195301F
:10F5A000F0F0963009F048C043C02B3109F042C951
:10F5B00091E06BE13FC96227C15DDE4F2883CF52E6
:10F5C000D14092E037C9B22FA0E0622793E032C960
:10F5D000822F90E0A82BB92B622794E02BC92E3004
:10F5E00009F039C3622795E0C05DDE4F19821882A9
:10F5F000C053D1401FC9E1E0F0E0EC0FFD1FC05D3A
:10F60000DE4F08811981C053D140E00FF11F2083E4
:10F610000F5F1F4FC05DDE4F19830883C053D14079
:10F6200062270A171B0709F005C9D80196E002C92D
:10F63000261709F010C303C0973009F0FBC87724E0
:10F640009981933109F412C19431C8F4963009F4C8
:10F65000D8C0973050F4923009F406C1933009F4C1
:10F660006DC0913009F059C253C0913109F477C08F
:10F67000923108F0BBC0903109F04FC2F5C098310B
:10F6800009F487C0993150F4953109F4EFC09531F0
:10F6900008F4C6C1963109F040C2C2C19A3109F4DA
:10F6A0006CC09A3108F491C09B3109F45BC09D3164
:10F6B00009F033C29D81903359F48F81882311F46E
:10F6C0009EE11CC0813011F091E018C098E916C08D
:10F6D000892F807591F0903539F4E0E0F0E089E011
:10F6E0008093570094910AC0983539F4E3E0F0E034
:10F6F00089E080935700949101C090E01A821B82A8
:10F700008D818C831D829E831F8227E030E009C299
:10F710001A8288E08B8381E48C8386E58D8382E581
:10F720008E8389E48F8383E5888780E589878FE5E9
:10F730008A8782E38B872BE030E0F3C18A818139AD
:10F7400041F0823941F0803911F48FE005C080E04A
:10F7500003C082E001C08AE01A828B8344C0772410
:10F76000739482C08D81882311F48EE12CC0813086
:10F7700011F081E028C088E926C01A82E1E0F0E0BB
:10F7800089E08093570084918B831C8224E030E0D1
:10F79000C8C18B81803589F48C81883039F4E2E0EE
:10F7A000F0E089E08093570084910DC0E0E0F0E044
:10F7B00089E080935700849106C0E3E0F0E089E09F
:10F7C0008093570084911A82DFCF8D81836C99E0FA
:10F7D000E1E0F0E0082E90935700E89507B600FCB2
:10F7E000FDCF1A821B8223E030E09BC180EC8A832C
:10F7F000CE5CDE4F188219821A821B82C253D1401E
:10F800008EC18A8190E0A0E0B0E0582F44273327D2
:10F8100022278B8190E0A0E0B0E0DC0199278827C7
:10F82000282B392B4A2B5B2B8D8190E0A0E0B0E098
:10F83000282B392B4A2B5B2B8C8190E0A0E0B0E089
:10F84000BA2FA92F982F8827282B392B4A2B5B2BCF
:10F85000220F331F441F551FC05EDE4F288339839C
:10F860004A835B83C052D1401A8259C13A81C95C34
:10F87000DE4F3883C753D140CA5CDE4F1882C6536F
:10F88000D1408B81C82EDD24CA5CDE4F488159816E
:10F89000C653D140C42AD52A933109F082C0CE5C28
:10F8A000DE4F88819981AA81BB81C253D1408050AB
:10F8B000904CA340B04030F583E0CE5CDE4FE88052
:10F8C000F9800A811B81C253D140F70100935B008C
:10F8D00080935700E89507B600FCFDCFCE5CDE4F65
:10F8E000088119812A813B81C253D14000501F4FAA
:10F8F0002F4F3F4FCE5CDE4F088319832A833B8313
:10F90000C253D140C05EDE4F488159816A817B81FC
:10F91000C052D140DE011B9631E08C9111962C91A2
:10F9200011971296C75CDE4F2883C953D140C85C3B
:10F93000DE4F1882C853D14090E0C85CDE4FE881AA
:10F94000F981C853D1408E2B9F2B0C01FA01609393
:10F950005B0030935700E89511244E5F5F4F6F4F67
:10F960007F4F0EEFE02E0FEFF02ECE0CDF1CC114F8
:10F97000D10499F685E0C05EDE4F088119812A81A5
:10F980003B81C052D140F80120935B008093570027
:10F99000E89507B600FCFDCF81E180935700E8951C
:10F9A00035C0C05EDE4F88819981AA81BB81C0527B
:10F9B000D140B695A795979587957C018601ABE0D8
:10F9C000AA2EB12CAC0EBD1E0BC0D5016D915D01F0
:10F9D000C7010F947FFE0894E11CF11C01501040F8
:10F9E0000115110591F7A60160E070E0440F551F65
:10F9F000661F771FC05EDE4FE880F9800A811B8199
:10FA0000C052D1404E0D5F1D601F711F1A82C05E33
:10FA1000DE4F488359836A837B83C052D1407FC0C5
:10FA2000FA80C55CDE4FF882CB53D140C65CDE4F16
:10FA30001882CA53D1408B81C82EDD24C65CDE4FAC
:10FA400008811981CA53D140C02AD12A1A828981DA
:10FA5000BE016D5F7F4F843121F59601C05EDE4FA0
:10FA6000E880F9800A811B81C052D1400BBFF701A9
:10FA700087919691DB018C9311969C936E5F7F4FDB
:10FA8000D801C7010296A11DB11DC05EDE4F88835B
:10FA90009983AA83BB83C052D14022503040F1F6F3
:10FAA00036C0C05EDE4F288139814A815B81C052F9
:10FAB000D1400894C108D108760100E010E0089414
:10FAC000C11CD11C0894E11CF11C011D111DE20E8A
:10FAD000F31E041F151F21BDBB27A52F942F832FB5
:10FAE00082BD2F5F3F4F4F4F5F4FF89A80B5DB01CC
:10FAF0008D93BD012E153F054007510761F7C05E8C
:10FB0000DE4F288339834A835B83C052D1409601FC
:10FB10002D5F3F4FFB01108204C080EC8A8322E0FE
:10FB200030E08BE18093C6008091C00086FFFCCF5F
:10FB30008091C00080648093C000C15DDE4FF88179
:10FB4000CF52D140F093C6008091C00086FFFCCF19
:10FB50008091C00080648093C000432F3093C60022
:10FB60008091C00086FFFCCF8091C00080648093AC
:10FB7000C000922F2093C6008091C00086FFFCCF6A
:10FB80008091C00080648093C0008EE08093C600A6
:10FB90008091C00086FFFCCF8091C000806480937C
:10FBA000C00065E1C15DDE4FE880CF52D1406E25D7
:10FBB00069276427FE01319610C090819093C6009A
:10FBC0008091C00086FFFCCF31968091C000806498
:10FBD0008093C0006927215030402115310569F715
:10FBE0006093C6008091C00086FFFCCF8091C0006A
:10FBF00080648093C00085B1805885B9772081F4F6
:10FC0000C15DDE4F0881CF52D1400F5FC15DDE4F35
:10FC10000883CF52D14090E0A0E0B0E00D941AF4F8
:10FC200027982F9880E090E020ED37E0F901319798
:10FC3000F1F7019684369105C9F700008091C00064
:10FC40008D7F8093C00081E180935700E895EE2777
:10FC5000FF270994FFCF90E00D941AF497FB092E2B
:10FC600007260AD077FD04D02ED006D000201AF443
:10FC7000709561957F4F0895F6F7909581959F4F08
:10FC80000895A1E21A2EAA1BBB1BFD010DC0AA1FDD
:10FC9000BB1FEE1FFF1FA217B307E407F50720F0F5
:10FCA000A21BB30BE40BF50B661F771F881F991F70
:10FCB0001A9469F760957095809590959B01AC01B9
:10FCC000BD01CF010895AA1BBB1B51E107C0AA1FAC
:10FCD000BB1FA617B70710F0A61BB70B881F991FED
:10FCE0005A95A9F780959095BC01CD010895F99991
:10FCF000FECF92BD81BDF89A992780B50895262F31
:10FD0000F999FECF1FBA92BD81BD20BD0FB6F89400
:0EFD1000FA9AF99A0FBE01960895F894FFCF63
:00000001FF
