:100000000C94F2000C9423010C9487010C940102CF
:100010000C94A1020C943B030C9423010C94230137
:100020000C9423010C9423010C9423010C942301C0
:100030000C9423010C9423010C9423010C942301B0
:100040000C9423010C9490030C9423010C94230131
:100050000C9423010C9423010C9423010C94230190
:100060000C9423010C9423010C9423010C94230180
:100070000C9423010C9423010C9423010C94230170
:100080000C9423010C9423010C9423010C94230160
:100090000C9423010C9423010C9423010C94230150
:1000A0000C9423010C9423010C9423010C94230140
:1000B0000C9423010C9423010C9423010C94230130
:1000C0000C9423010C9423010C9423010C94230120
:1000D0000C9423010C9423010C9423010C94230110
:1000E0000C9423010C94AC0300407A10F35A00A046
:1000F000724E18090010A5D4E80000E876481700F1
:1001000000E40B54020000CA9A3B000000E1F50530
:10011000000080969800000040420F000000A0867A
:1001200001000000102700000000E80300000000AC
:100130006400000000000A00000000000100000050
:1001400000002C76D888DC674F0823DFC1DFAE596A
:10015000E1B1B796E5E3E453C63AE651997696E8FD
:10016000E6C28426EB898C9B62ED407C6FFCEFBC81
:100170009C9F40F2BAA56FA5F490055A2AF75C93AC
:100180006B6CF9676DC11BFCE0E40D47FEF520E6E2
:10019000B500D0ED902E0300943577050080841EC5
:1001A000080000204E0A000000C80C333333330F20
:1001B000986E12831141EF8D2114893BE65516CFBD
:1001C000FEE6DB18D1844B381BF77C1D901DA4BBC9
:1001D000E424203284725E228100C9F124ECA1E57E
:1001E0003D27AC0311241FBECFEFD1E2DEBFCDBF50
:1001F00000E00CBF12E0A0E0B2E0E2EFF4E100E0CA
:100200000BBF02C007900D92AC31B107D9F722E0C5
:10021000ACE1B2E001C01D92A733B207E1F710E0F4
:10022000C2EFD0E000E006C021970109802FFE0157
:100230000E946F0AC13FD10780E00807A9F70E941A
:10024000BD030C94770A0C940000F89482B9479A85
:100250004698459A4598789412B811B84798469AA6
:10026000459A45980799FCCF8FEF81B985E08A952B
:10027000F1F700000895F89482B988B18F7388B9B6
:10028000459A4598789412B811B8469A459A459877
:100290000799FCCF8FEF81B985E08A95F1F70000CF
:1002A00008950F931F93CF93DF938C01862F80685F
:1002B0000E943B01E8018991882319F00E942501E1
:1002C000FACFDF91CF911F910F910895FF920F9375
:1002D0001F93CF93DF9300D000D0CDB7DEB7F42EBD
:1002E0008E010F5F1F4F22E046E00E94D5056F2D63
:1002F000C8010E94510126960FB6F894DEBF0FBECA
:10030000CDBFDF91CF911F910F91FF9008951F9264
:100310000F920FB60F9211240BB60F922F933F93AB
:100320004F935F936F937F938F939F93AF93BF93FD
:10033000EF93FF938091200281115EC0499925C0FF
:100340006091050260956093050280E091E00E9453
:100350004C08809105026BE08F3F81F586E192E0C9
:100360000E9451016DE486E192E00E94510160918A
:10037000010270910202809103029091040246E40E
:100380000E94660181E0809320028FED9EE201973A
:10039000F1F700C00000FF91EF91BF91AF919F91E5
:1003A0008F917F916F915F914F913F912F910F901E
:1003B0000BBE0F900FBE0F901F90189584E192E036
:1003C0000E9451016DE484E192E00E94510126E611
:1003D00036E646EE5FE36091010270910202809181
:1003E0000302909104020E94020A20E030E040E003
:1003F00052E40E946808C3CF499BC7CF10922002E5
:10040000C4CF1F920F920FB60F9211240BB60F920A
:10041000CF92DF92EF92FF922F933F934F935F9390
:100420006F937F938F939F93AF93BF93EF93FF93BC
:1004300080912102811180C04A994BC020E030E0B8
:1004400040E05FE36091010270910202809103023B
:10045000909104020E9468086B017C0120E030E06A
:1004600040E252E40E94FD0918160CF44FC0C092FD
:100470000102D0920202E0920302F0920402409143
:10048000010250910202609103027091040290E017
:1004900080E00E945A0880910502811144C026E63E
:1004A00036E646EE5FE360910102709102028091B0
:1004B0000302909104020E94020A20E030E040E032
:1004C00052E40E94680846E40E94660181E080933D
:1004D00021028FED9EE20197F1F700C00000FF912D
:1004E000EF91BF91AF919F918F917F916F915F91AC
:1004F0004F913F912F91FF90EF90DF90CF900F9011
:100500000BBE0F900FBE0F901F90189580E090E0EB
:10051000A0E2B2E48093010290930202A09303024E
:10052000B0930402ACCF60910102709102028091FD
:10053000030290910402C7CF4A9BCBCF10922102B5
:10054000C8CF1F920F920FB60F9211240BB60F92C5
:10055000CF92DF92EF92FF922F933F934F935F934F
:100560006F937F938F939F93AF93BF93EF93FF937B
:100570008091220281117AC04B9949C020E030E07D
:1005800040E05FE3609101027091020280910302FA
:10059000909104020E9467086B017C0120E030E02A
:1005A000A9010E94D40887FD4FC0C0920102D092D9
:1005B0000202E0920302F092040240910102509183
:1005C0000202609103027091040290E080E00E94B8
:1005D0005A0880910502811140C026E636E646EEB3
:1005E0005FE3609101027091020280910302909199
:1005F00004020E94020A20E030E040E052E40E943F
:10060000680846E40E94660181E0809322028FED33
:100610009EE20197F1F700C00000FF91EF91BF91BA
:10062000AF919F918F917F916F915F914F913F918A
:100630002F91FF90EF90DF90CF900F900BBE0F9017
:100640000FBE0F901F901895109201021092020297
:100650001092030210920402B0CF609101027091D7
:1006600002028091030290910402CBCF4B9BCFCF2B
:1006700010922202CCCF1F920F920FB60F9211242C
:100680000BB60F922F933F934F935F936F937F938C
:100690008F939F93AF93BF93EF93FF938091230228
:1006A000811139C0649917C080911D02882361F1BE
:1006B00083E084BD80916F008D7F80936F001092E6
:1006C0001E0210921D026DE080E192E00E94510135
:1006D00081E0809323028FED9EE20197F1F700C045
:1006E0000000FF91EF91BF91AF919F918F917F910A
:1006F0006F915F914F913F912F910F900BBE0F9093
:100700000FBE0F901F90189581E080931D026DE041
:1007100088E192E0DBCF649BDECF10922302DBCF37
:100720001F920F920FB60F9211248F939F93809177
:100730001C02882379F084E085BD80911C0291E041
:10074000892780931C029F918F910F900FBE0F906D
:100750001F90189583E0F0CFE4E2F2E0128213825A
:1007600014821582168217821086118612861386CD
:100770001486158611821082089583E084BD85BD9C
:100780008FE787BD109280008DE08093810084E820
:100790009EE1909389008093880080916F008D7F07
:1007A00080936F009FEF91B987B1806E87B984B154
:1007B000806C84B92E9A8AB1807F8AB98BB18F60A0
:1007C0008BB96C98749A8CB1829581708093230256
:1007D00089B183FB882780F98093220289B182FB4B
:1007E000882780F98093210289B186958170809352
:1007F000200289B1817080931F02909369008091DB
:100800006A00836080936A008DB38F618DBB78949A
:100810008FE19EE40197F1F700C0000088E30E9499
:100820003B018CE00E943B0186E00E943B0181E09D
:100830000E943B0160E086E092E00E94510160E48A
:100840008AE092E00E9451016DE080E192E00E9416
:1008500051018AE80E943B018FED0E9425018CEC3A
:100860000E943B018FED0E94250180E091E00E94F3
:10087000440890910502891709F44BC110920502B2
:100880006BE084E192E00E9451016DE484E192E02A
:100890000E94510160910102709102028091030255
:1008A000909104022091050221110CC026E636E643
:1008B00046EE5FE30E94020A20E030E040E052E4AE
:1008C0000E94680846E40E94660139E0232E4FE149
:1008D000E42E4FE3F42ECC24CA9452E0D52EC3E08C
:1008E000D1E063EC362E10922A0210922B02109265
:1008F0002C0210922D022AE0A22EB12C9FE728E3B1
:1009000041E0915020404040E1F700C000007FB737
:10091000B0919000A09191002091980030919900A1
:100920001092900020929100F0929900E09298002D
:10093000F894269A2E981092950010929400C19ADD
:10094000C19BFECF2E9AD0929900C0929800269813
:100950001E99FECF1E9BFECF1E99FECFE2E3F2E072
:1009600060E087E090E01E9BFECF10929500109211
:100970009400C19A1E99FECF48B341FB002700F9AD
:1009800010E0A801082E01C0440F0A94EAF7642B76
:10099000019748F7619382E0E733F80709F71E9B58
:1009A000FECF269A2E9AB0939000A0939100309398
:1009B0009900209398007FBF809124029091250296
:1009C0008130910509F0C0C06091340280913502F8
:1009D00067FFA8C070E0762F662766277F77682BB1
:1009E00090E080E00E944B0920E030E040E251E4DA
:1009F0000E94D90890586093260270932702809332
:100A00002802909329026091320270913302762776
:100A10006727762790E080E00E944B0920E030E0D5
:100A200040E251E40E94D90860932E0270932F0295
:100A30008093300290933102209126023091270258
:100A4000409128025091290260912A0270912B0254
:100A500080912C0290912D020E94680860932A02D6
:100A600070932B0280932C0290932D0221E0A21A06
:100A7000B10809F043CF20E030E040E251E40E94A9
:100A8000D90860932A0270932B0280932C029093D2
:100A90002D022091050221110CC026E636E646EE15
:100AA0005FE30E94020A20E030E040E052E40E944E
:100AB000680844E00E94660140902A0250902B0290
:100AC00060902C0270902D028090010290900202A2
:100AD000A0900302B0900402A3019201C501B401E9
:100AE0000E94D40887FF50C080911D02882309F41A
:100AF000FACED0931C02C5BD1092850010928400DE
:100B000034BC80916F00826080936F00D0931E028E
:100B1000EACE6BE086E192E00E9451016DE486E14D
:100B200092E0B6CE60913402709135027627672745
:100B3000762790E080E00E944B0920E030E040E220
:100B400051E40E94D90857CF892B09F05CCF6091FE
:100B5000350270E090E080E00E944D0920E030E036
:100B600040E251E40E94D9082B013C01609134021B
:100B700070E090E080E00E944D099B01AC01C30150
:100B8000B2010E94680837CFA3019201C501B401E8
:100B90000E94FD0987FDA7CEC4BD80916F008D7FA7
:100BA00080936F0010921E029ECEEF920F931F93C0
:100BB000CF93DF93E80134E047FD34E1042E000CCD
:100BC000550B57FF03C0519541955109E32E022F54
:100BD000242FAE010E94F305CE01DF91CF911F912A
:100BE0000F91EF9008958F929F92AF92BF92CF9204
:100BF000DF92EF92FF920F931F93CF93DF9300D07A
:100C000000D000D0CDB7DEB76A01F22EB02E102F83
:100C1000FBE3AF2EA01608F41BE31F5F012F27E0B4
:100C2000AE014F5F5F4F0E946C07BC018981982F16
:100C30009970913009F44EC09BE2E1FC04C09E2DF6
:100C40009170E0FC49C05E2D5071E82FE87083FF81
:100C500055C084E0911101C083E0EF2DE81B8F1592
:100C600008F0E0E0D6018E2F20E25523C9F1992348
:100C700029F0D6019C93C60101966C0196012D5F67
:100C80003F4FE2FE33C08EE4D6018C9391E411967F
:100C90009C93119712968C93D9018E2F90E281111B
:100CA0002AC0E20FF32FF11D10828EEF9FEF2996DD
:100CB0000FB6F894DEBF0FBECDBFDF91CF911F916D
:100CC0000F91FF90EF90DF90CF90BF90AF909F90EB
:100CD0008F9008959DE2B7CF90E2B5CF2D938150CC
:100CE0008111FCCFCE0ED11CE0E0C1CF8EE6D60143
:100CF0008C9391E6CCCF9D938150D1CF482F4470F7
:100D000082FF3DC084E0911101C083E08F1510F493
:100D1000EF2DE81BD6018E2F20E2552309F19923F0
:100D200029F0D6019C93C60101966C0196012D5FB6
:100D30003F4FE2FE1BC089E4D6018C938EE41196EE
:100D40008C93119786E412968C93D9018E2F90E2A2
:100D5000882309F4A6CF9D938150FACF2D9381501B
:100D60008111FCCFCE0ED11CE0E0D9CF89E6D601AF
:100D70008C938EE611968C93119786E6E4CF9B01B7
:100D800077FF02C030E020E0A1E0B0E0911102C0A6
:100D9000B0E0A0E0F9013196AE0FBF1F8B2C912C73
:100DA000BB2009F461C05401EFEFAE1ABE0AAA0DD0
:100DB000BB1DFA161B0619F014F04F2D4A1B5111DA
:100DC00088C0E3FC59C07601A42FB0E2A1114FC046
:100DD000C40ED11C992309F45BC040E0D6011196E2
:100DE000F60190836D01552309F448C0012F060FC9
:100DF0009A81582F507184FF03C0913309F4015038
:100E000010160CF047C0093008F008E0EEE2FE2EA4
:100E10005B01A01AB10885019194819491082F3F3C
:100E2000320729F4D601FC92F60131966F01621760
:100E3000730794F1021713077CF5DB01A21BB30BB8
:100E4000AA24A394B12CAC0EBD1EAA0DBB1D1196F5
:100E50008C9121503109D601119628153905F4F0ED
:100E6000F60180836D01DBCFB12CA12CA0CFF7015F
:100E7000B1937F01A150AACF9111B0CFD601942F89
:100E800050E302C05D9391509111FCCFC40ED11C70
:100E900040E0ACCF01E0BACF80E3DBCF621773074D
:100EA00031F4963388F4953311F4552369F0F60143
:100EB0008083FD01842F90E2811108C0A40FB11D31
:100EC0001C9290E080E0F3CE81E3F1CF91938150CA
:100ED000F3CF911183CF8ACF283008F027E0332752
:100EE000DA01990F311D87FD91600096610571054A
:100EF00039F432602E5F3D9330E32A95E1F708958F
:100F00009F3F30F080387105610509F03C5F3C5F20
:100F10003D93913008F08068911DDF93CF931F932C
:100F20000F93FF92EF92192F987F9695E92F969540
:100F30009695E90FFF27EE5BFE4F99273327EE24A6
:100F4000FF24A701E70105900894079428F4360FC1
:100F5000E71EF81E491F511D660F771F881F991F36
:100F60000694A1F70590079428F4E70EF81E491F90
:100F7000561FC11D770F881F991F661F0694A1F782
:100F80000590079428F4F80E491F561FC71FD11D5E
:100F9000880F991F661F771F0694A1F70590079485
:100FA00020F4490F561FC71FD81F990F661F771FC0
:100FB000881F0694A9F784911095177041F0D69573
:100FC000C79557954795F794E7941A95C1F7E8EEBA
:100FD000F0E0689415901591359165919591059083
:100FE0007FE27395E118F10A430B560BC90BD00948
:100FF000C0F7E10CF11E431F561FC91FD01D7EF420
:10100000703311F48A95E6CFE894015030F0080F60
:101010000AF40027021708F4202F2395022F7A33B1
:1010200028F079E37D932A95E9F710C07D932A95FE
:1010300089F6069497956795379517951794E11853
:10104000F10A430B560BC90BD00998F023957E91FA
:1010500073957A3308F070E37C932013B8F77E9190
:1010600070617D9330F0839571E37D9370E32A95F1
:10107000E1F71124EF90FF900F911F91CF91DF9135
:10108000992787FD90950895F999FECF92BD81BD6E
:10109000F89A992780B50895262FF999FECF1FBA9F
:1010A00092BD81BD20BD0FB6F894FA9AF99A0FBE91
:1010B00001960895242F0E944D08252F0E944D0867
:1010C0000C9462080E944C08272F0C944D0850582D
:1010D000BB27AA270E947F080C94C3090E94B50968
:1010E00038F00E94BC0920F039F49F3F19F426F42F
:1010F0000C94B2090EF4E095E7FB0C94AC09E92FCF
:101100000E94D40958F3BA1762077307840795073A
:1011100020F079F4A6F50C94F6090EF4E0950B2E68
:10112000BA2FA02D0B01B90190010C01CA01A00139
:101130001124FF27591B99F0593F50F4503E68F194
:101140001A16F040A22F232F342F4427585FF3CFD5
:10115000469537952795A795F0405395C9F77EF4A6
:101160001F16BA0B620B730B840BBAF09150A1F0EF
:10117000FF0FBB1F661F771F881FC2F70EC0BA0F75
:10118000621F731F841F48F4879577956795B795FD
:10119000F7959E3F08F0B0CF9395880F08F09927F8
:1011A000EE0F9795879508950E94880908F481E0CD
:1011B00008950E94ED080C94C3090E94BC0958F0E0
:1011C0000E94B50940F029F45F3F29F00C94AC0966
:1011D00051110C94F7090C94B2090E94D40968F3D8
:1011E0009923B1F3552391F3951B550BBB27AA27E0
:1011F00062177307840738F09F5F5F4F220F331F1A
:10120000441FAA1FA9F335D00E2E3AF0E0E832D0E1
:1012100091505040E695001CCAF72BD0FE2F29D0E4
:10122000660F771F881FBB1F261737074807AB07B6
:10123000B0E809F0BB0B802DBF01FF2793585F4F2B
:101240003AF09E3F510578F00C94AC090C94F709E4
:101250005F3FE4F3983ED4F3869577956795B7950D
:10126000F7959F5FC9F7880F911D9695879597F918
:101270000895E1E0660F771F881FBB1F6217730791
:101280008407BA0720F0621B730B840BBA0BEE1FA6
:1012900088F7E0950895E89409C097FB3EF490958F
:1012A0008095709561957F4F8F4F9F4F9923A9F03F
:1012B000F92F96E9BB279395F695879577956795CE
:1012C000B795F111F8CFFAF4BB0F11F460FF1BC012
:1012D0006F5F7F4F8F4F9F4F16C0882311F096E9A5
:1012E00011C0772321F09EE8872F762F05C0662353
:1012F00071F096E8862F70E060E02AF09A95660F0C
:10130000771F881FDAF7880F9695879597F90895C4
:10131000990F0008550FAA0BE0E8FEEF1616170606
:10132000E807F907C0F012161306E407F50798F06E
:10133000621B730B840B950B39F40A2661F0232B87
:10134000242B252B21F408950A2609F4A140A69503
:101350008FEF811D811D089597F99F6780E870E0E8
:1013600060E008959FEF80EC089500240A9416161B
:10137000170618060906089500240A941216130683
:10138000140605060895092E0394000C11F4882311
:1013900052F0BB0F40F4BF2B11F460FF04C06F5F2D
:1013A0007F4F8F4F9F4F089557FD9058440F551F03
:1013B00059F05F3F71F04795880F97FB991F61F0D7
:1013C0009F3F79F087950895121613061406551F4E
:1013D000F2CF4695F1DF08C0161617061806991FBA
:1013E000F1CF86957105610508940895E894BB27AF
:1013F00066277727CB0197F908950E94880908F49A
:101400008FEF08950E94150A0C94C3090E94B50934
:1014100038F00E94BC0920F0952311F00C94AC091F
:101420000C94B20911240C94F7090E94D40970F3AA
:10143000959FC1F3950F50E0551F629FF001729F79
:10144000BB27F00DB11D639FAA27F00DB11DAA1F88
:10145000649F6627B00DA11D661F829F2227B00DD5
:10146000A11D621F739FB00DA11D621F839FA00D60
:10147000611D221F749F3327A00D611D231F849FB0
:10148000600D211D822F762F6A2F11249F57504007
:101490009AF0F1F088234AF0EE0FFF1FBB1F661F82
:1014A000771F881F91505040A9F79E3F510580F04B
:1014B0000C94AC090C94F7095F3FE4F3983ED4F325
:1014C000869577956795B795F795E7959F5FC1F7EF
:1014D000FE2B880F911D9695879597F90895EE0F2D
:1014E000FF1F881F8BBF0790F691E02D1994F89489
:0214F000FFCF2C
:1014F200010000D841FF54203D00547269673A0050
:0C1502004F66660046004300204F6E005C
:00000001FF
