:100000000C9483000C94B4000C94B4000C94B400D1
:100010000C94B4000C94B4000C94B4000C94B40090
:100020000C94B4000C94B4000C94B4000C94B40080
:100030000C94B4000C94B4000C94B4000C94B40070
:100040000C94B4000C9447020C94B4000C94B400CB
:100050000C94B4000C94B4000C94B4000C94B40050
:100060000C94B4000C9411020C94E7010C94B400AD
:100070000C94B4000C94B4000C94B4000C94B40030
:100080000C94B4000C94B4000C94B4000C94B40020
:100090000C94B4000C94B4000C94B4000C94B40010
:1000A0000C94B4000C94B4000C94B4000C94B40000
:1000B0000C94B4000C94B4000C94B4000C94B400F0
:1000C0000C94B4000C94B4000C94B4000C94B400E0
:1000D0000C94B4000C94B4000C94B4000C94B400D0
:1000E0000C94B4000C94F2000C94E3000C948F0177
:1000F0000C9406010C9414010C94B6000C9442016B
:100100000C946302630211241FBECFEFD1E2DEBF65
:10011000CDBF00E00CBF12E0A0E0B2E0ECE5FCE0F7
:1001200000E00BBF02C007900D92A832B107D9F7CB
:1001300023E0A8E2B2E001C01D92A230B207E1F7CD
:1001400010E0C3E8D0E000E006C021970109802F4D
:10015000FE010E942406C238D10780E00807A9F7F3
:100160000E94A0020C942C060C940000AF92BF9247
:10017000CF92DF92EF92FF920F931F93CF93DF9373
:100180006C017B018B01040F151FEB015E01AE18A2
:10019000BF08C017D10759F06991D601ED91FC91C4
:1001A0000190F081E02DC6011995892B79F7C501E1
:1001B000DF91CF911F910F91FF90EF90DF90CF9043
:1001C000BF90AF900895FC01538D448D252F30E0F2
:1001D000842F90E0821B930B541710F0CF96089554
:1001E00001970895FC01918D828D981761F0A28D81
:1001F000AE0FBF2FB11D5D968C91928D9F5F9F7347
:10020000928F90E008958FEF9FEF0895FC01918DFC
:10021000828D981731F0828DE80FF11D858D90E069
:1002200008958FEF9FEF0895FC01918D228D892F06
:1002300090E0805C9F4F821B91098F7399270895EE
:10024000FC01A48DA80FB92FB11DA35ABF4F2C914B
:10025000848D90E001968F739927848FA689B78942
:100260002C93A089B1898C91837080648C93938D39
:10027000848D981306C00288F389E02D80818F7DDC
:1002800080830895EF92FF920F931F93CF93DF9394
:10029000EC0181E0888F9B8D8C8D98131AC0E889C2
:1002A000F989808185FF15C09FB7F894EE89FF8991
:1002B0006083E889F98980818370806480839FBF2F
:1002C00081E090E0DF91CF911F910F91FF90EF902F
:1002D0000895F62E0B8D10E00F5F1F4F0F7311273F
:1002E000E02E8C8D8E110CC00FB607FCFACFE8897A
:1002F000F989808185FFF5CFCE010E942001F1CFE1
:10030000EB8DEC0FFD2FF11DE35AFF4FF0829FB7ED
:10031000F8940B8FEA89FB8980818062CFCFCF93DD
:10032000DF93EC01888D8823B9F0AA89BB89E8891D
:10033000F9898C9185FD03C0808186FD0DC00FB6C3
:1003400007FCF7CF8C9185FFF2CF808185FFEDCF41
:10035000CE010E942001E9CFDF91CF91089582B9AB
:1003600088B18F7388B9459A459812B811B8469AE2
:10037000459A45980799FCCF85E08A95F1F70000EA
:100380008FEF81B90895CF93DF93D82FC92F862F90
:1003900080680E94AF01ED2FFC2F9FEF8191882391
:1003A00099F082B9479A4698459A459812B811B87B
:1003B0004798469A459A45980799FCCF85E08A95D3
:1003C000F1F7000091B9EACFDF91CF9108951F9224
:1003D0000F920FB60F9211240BB60F922F933F93EB
:1003E0004F935F936F937F938F939F93AF93BF933D
:1003F000EF93FF938AE292E00E942001FF91EF9138
:10040000BF91AF919F918F917F916F915F914F912C
:100410003F912F910F900BBE0F900FBE0F901F902A
:1004200018951F920F920FB60F9211240BB60F92D0
:100430002F938F939F93EF93FF93E0913A02F09164
:100440003B028081E0914002F091410282FD1DC09B
:100450009081809143028F5F8F73209144028217B5
:1004600041F0E0914302F0E0E65DFD4F958F80930F
:100470004302FF91EF919F918F912F910F900BBEAF
:100480000F900FBE0F901F9018958081F2CF1F9292
:100490000F920FB60F9211248F939F938091280291
:1004A000882379F084E085BD8091280291E0892736
:1004B000809328029F918F910F900FBE0F901F90F5
:1004C000189583E0F0CFEAE2F2E01382128288EE20
:1004D00093E0A0E0B0E084839583A683B78384E0B3
:1004E00092E09183808385EC90E09587848784EC0B
:1004F00090E09787868780EC90E0918B808B81ECF1
:1005000090E0938B828B82EC90E0958B848B86ECD1
:1005100090E0978B868B118E128E138E148EE7ECE3
:10052000F2E01282138214821582168217821086DC
:1005300011861286138614861586118210820895FC
:1005400084B1806C84B92E9A83E084BD85BD8FE729
:1005500087BD109280008DE08093810084E89EE149
:10056000909389008093880080916F008D7F8093A5
:100570006F007894E0913A02F0913B0282E0808330
:10058000E0913602F09137021082E0913802F0914A
:1005900039028FEC808310924202E0913E02F0918A
:1005A0003F0286E08083E0913C02F0913D02808131
:1005B00080618083E0913C02F0913D0280818860FF
:1005C0008083E0913C02F0913D02808180688083CD
:1005D000E0913C02F0913D0280818F7D80838FEF1E
:1005E00081B987B1806E87B92FEF80E792E0215003
:1005F00080409040E1F700C0000088E30E94AF0116
:100600008CE00E94AF0186E00E94AF0181E00E9471
:10061000AF0160E082E192E00E94C30169E088E1FD
:1006200092E00E94C30160E48CE192E00E94C30169
:1006300067E481E292E00E94C3016AE484E292E00E
:100640000E94C30126E8822E9924939432E0F32E6F
:1006500043E0E42EBB24B39453EC252E309090005D
:10066000A0909100C0919800D091990010929000B4
:100670002DE0209391009092990080929800109222
:10068000CD021092CE021092CF021092D0020AE058
:1006900010E0C19A1092950010929400C19BFECF79
:1006A000AFB77091B0006091B1005091B300F0927B
:1006B000B00085E08093B1009EE79093B300F8947A
:1006C000269A2E98B99A1092B200B99BFECF2E9A14
:1006D000F092B1002FE52093B30026981E99FECF2B
:1006E0001E9BFECF1E99FECFE5EDF2E040E087E0D5
:1006F00090E01E9BFECFB99A1092B2001E99FECFD9
:1007000027B321FBCC24C0F8D12C9601082E01C0C0
:10071000220F0A94EAF7422B019758F7419382E09F
:10072000EA3DF80719F71E9BFECF269A2E9AAFBF17
:100730007093B0006093B1005093B3008091C702F2
:100740009091C8028130910509F09EC06091D70256
:100750008091D80267FF86C070E0762F66276627F3
:100760007F77682B90E080E00E946D0520E030E00C
:1007700040E251E40E94FB0490586093C9027093D8
:10078000CA028093CB029093CC026091D502709103
:10079000D60276276727762790E080E00E946D05D5
:1007A00020E030E040E251E40E94FB046093D1027B
:1007B0007093D2028093D3029093D4022091C90205
:1007C0003091CA024091CB025091CC026091CD028F
:1007D0007091CE028091CF029091D0020E948A0443
:1007E0006093CD027093CE028093CF029093D0029B
:1007F0000150110909F04DCF20E030E040E251E412
:100800000E94FB042B013C014092CD025092CE028B
:100810006092CF027092D0023092B000A092B100EC
:10082000DD27D0939900C093980020E030E040EDA0
:1008300051E40E941F0618160CF046C08091290250
:1008400081115BC0B0922802E5BC10928500109225
:10085000840024BC80916F00826080936F00B0920E
:100860002902FCCE6091D7027091D80276276727C3
:10087000762790E080E00E946D0520E030E040E2C5
:1008800051E40E94FB0479CF892B09F07ECF60915F
:10089000D80270E090E080E00E946F0520E030E038
:1008A00040E251E40E94FB042B013C016091D7021D
:1008B00070E090E080E00E946F059B01AC01C301F5
:1008C000B2010E948A0459CF20E030E040ED51E4AB
:1008D000C301B2010E94F60418160CF4BFCE809139
:1008E0002902882309F4BACEE4BC80916F008D7F81
:1008F00080936F0010922902B1CE20E030E040EDED
:1009000051E4C301B2010E94F60418160CF4A6CEFD
:10091000EBCF5058BB27AA270E94A1040C94E505F1
:100920000E94D70538F00E94DE0520F039F49F3F81
:1009300019F426F40C94D4050EF4E095E7FB0C941E
:10094000CE05E92F0E94F60558F3BA176207730720
:100950008407950720F079F4A6F50C9418060EF498
:10096000E0950B2EBA2FA02D0B01B90190010C01BF
:10097000CA01A0011124FF27591B99F0593F50F4D7
:10098000503E68F11A16F040A22F232F342F44272F
:10099000585FF3CF469537952795A795F040539527
:1009A000C9F77EF41F16BA0B620B730B840BBAF0F7
:1009B0009150A1F0FF0FBB1F661F771F881FC2F762
:1009C0000EC0BA0F621F731F841F48F48795779576
:1009D0006795B795F7959E3F08F0B0CF9395880F30
:1009E00008F09927EE0F9795879508950E94AA051C
:1009F00008F481E008950E940F050C94E5050E941B
:100A0000DE0558F00E94D70540F029F45F3F29F039
:100A10000C94CE0551110C9419060C94D4050E9427
:100A2000F60568F39923B1F3552391F3951B550B04
:100A3000BB27AA2762177307840738F09F5F5F4FB1
:100A4000220F331F441FAA1FA9F335D00E2E3AF0F0
:100A5000E0E832D091505040E695001CCAF72BD008
:100A6000FE2F29D0660F771F881FBB1F2617370759
:100A70004807AB07B0E809F0BB0B802DBF01FF278B
:100A800093585F4F3AF09E3F510578F00C94CE0595
:100A90000C9419065F3FE4F3983ED4F3869577955E
:100AA0006795B795F7959F5FC9F7880F911D969544
:100AB000879597F90895E1E0660F771F881FBB1FA0
:100AC000621773078407BA0720F0621B730B840B4D
:100AD000BA0BEE1F88F7E0950895E89409C097FBDC
:100AE0003EF490958095709561957F4F8F4F9F4F05
:100AF0009923A9F0F92F96E9BB279395F695879549
:100B000077956795B795F111F8CFFAF4BB0F11F40B
:100B100060FF1BC06F5F7F4F8F4F9F4F16C08823B2
:100B200011F096E911C0772321F09EE8872F762FE8
:100B300005C0662371F096E8862F70E060E02AF029
:100B40009A95660F771F881FDAF7880F9695879515
:100B500097F90895990F0008550FAA0BE0E8FEEFEA
:100B600016161706E807F907C0F012161306E40771
:100B7000F50798F0621B730B840B950B39F40A266A
:100B800061F0232B242B252B21F408950A2609F448
:100B9000A140A6958FEF811D811D089597F99F674C
:100BA00080E870E060E008959FEF80EC08950024F5
:100BB0000A941616170618060906089500240A94C2
:100BC00012161306140605060895092E0394000C48
:100BD00011F4882352F0BB0F40F4BF2B11F460FFD7
:100BE00004C06F5F7F4F8F4F9F4F089557FD905800
:100BF000440F551F59F05F3F71F04795880F97FBE1
:100C0000991F61F09F3F79F087950895121613069A
:100C10001406551FF2CF4695F1DF08C016161706C9
:100C20001806991FF1CF86957105610508940895FE
:100C3000E894BB2766277727CB0197F908950E9490
:100C4000AA0508F48FEF0895EE0FFF1F881F8BBFD2
:0C0C50000790F691E02D1994F894FFCF66
:100C5C00000000004201B600E3008F011401F20015
:100C6C00060154656D703A00313233005661723AA8
:080C7C00003430003935370067
:00000001FF
