:100000000C9434000C943E000C943E000C943E0082
:100010000C943E000C943E000C943E000C943E0068
:100020000C943E000C943E000C943E000C943E0058
:100030000C943E000C943E000C943E000C943E0048
:100040000C943E000C943E000C9440000C943E0036
:100050000C943E000C943E000C943E000C943E0028
:100060000C943E000C943E0011241FBECFEFD8E04C
:10007000DEBFCDBF0E9460000C947D000C94000098
:100080001F920F920FB60F9211248F938091C6008A
:10009000813371F0823381F0803321F45F9A8BB128
:1000A0008F798BB98F910F900FBE0F901F9018957D
:1000B0005E9A8BB18F75F5CF5D9A8BB18F73F1CF4F
:1000C0008AB1806E8AB98BB18F718BB98091C10072
:1000D00080698093C1008091C20086608093C200D5
:1000E0008091C2008E7F8093C20087E690E090935B
:0E00F000C5008093C4007894FFCFF894FFCF32
:00000001FF
