:100000000C9472000C9493000C9493000C94930045
:100010000C9493000C9493000C9493000C94930014
:100020000C9493000C9493000C9493000C94930004
:100030000C9493000C9493000C9493000C949300F4
:100040000C9493000C94E6000C9493000C94930091
:100050000C9493000C9493000C9493000C949300D4
:100060000C9493000C9495000C9493000C949300C2
:100070000C9493000C9493000C9493000C949300B4
:100080000C9493000C9493000C9493000C949300A4
:100090000C9493000C9493000C9493000C94930094
:1000A0000C9493000C9493000C9493000C94930084
:1000B0000C9493000C9493000C9493000C94930074
:1000C0000C9493000C9493000C9493000C94930064
:1000D0000C9493000C9493000C9493000C94930054
:1000E0000C94930011241FBECFEFD1E2DEBFCDBF31
:1000F00000E00CBF12E0A0E0B2E0E8E1FBE000E0CD
:100100000BBF02C007900D92A830B107D9F722E0CB
:10011000A8E0B2E001C01D92A433B207E1F70E944B
:1001200005020C948A050C9400001F920F920FB6E2
:100130000F9211240BB60F922F934F935F938F93CF
:100140009F93EF93FF938091C1008F778093C100BD
:100150008091C60090912F029923A9F09130E1F08F
:100160008091C10080688093C100FF91EF919F91C1
:100170008F915F914F912F910F900BBE0F900FBEFB
:100180000F901F9018958B3619F410920102E8CF4A
:1001900081E080930102E4CF80932E0240912C02F3
:1001A00050912D0290E080E020912E022817190630
:1001B00061F35CF32091C00027FFFCCF2091C600C3
:1001C000FA01E80FF91F20830196EECF1F920F92DC
:1001D0000FB60F9211240BB60F922F933F934F93AC
:1001E0005F936F937F938F939F93AF93BF93CF93BF
:1001F000DF93EF93FF93809123029091240291115A
:1002000005C08093220291E09093240290912202F3
:1002100098130AC01092220280912F02882309F4B9
:1002200063C0813009F47CC0E0911102F0911202A8
:1002300080812081A0910F02B09110029C91220F29
:10024000991F9927991F922B90832C91E0910D0271
:10025000F0910E029081220F991F9927991F922BDE
:100260009C939081990F881F8827881F892B8083F2
:1002700080910C02282F30E0220F331FE0911E02E4
:10028000F0911F02E20FF31FC081D181A0910A02F9
:10029000B0910B0298819C93A081B181E0910802FA
:1002A000F091090211969C919083873109F0A9C0C1
:1002B000809122028F5F8093220210920C02FF91A4
:1002C000EF91DF91CF91BF91AF919F918F917F91EE
:1002D0006F915F914F913F912F910F900BBE0F90B7
:1002E0000FBE0F901F90189580910102882369F02E
:1002F000813009F099CF8091C00085FFFCCF81E665
:100300008093C600109201028FCF81E080932F026C
:10031000809301028091C00085FFFCCF83E7F0CF7E
:1003200090910002992309F466C020912002309137
:10033000210240911E0250911F02509321024093CE
:10034000200230931F0220931E02909101029923F4
:1003500069F0913009F068CF10922F028091C000AF
:1003600085FFFCCF81E68093C6005ECF20912C02F2
:1003700030912D0240911C0250911D0250932D028C
:1003800040932C0230931D0220931C0290912E0268
:1003900090931B02809301028091C00085FFFCCFE7
:1003A00083E78093C60010920102209113023091DE
:1003B000140240911502509116026091170270913B
:1003C00018028091190290911A02A1E00E9445043E
:1003D0002093130230931402409315025093160297
:1003E00060931702709318028093190290931A0277
:1003F0001092000219CF8091C00085FFFCCF8EE6DD
:10040000B2CF8F5F80930C025ACFCF93DF93CDB7DB
:10041000DEB7C258D1400FB6F894DEBF0FBECDBFD5
:100420008FEF81B987B980930A018E010F5F1F4F4B
:1004300080E891E0D801FC011D923197E9F782E252
:1004400090E0909312028093110288E290E09093E2
:100450000E0280930D028BE091E090931002809346
:100460000F0280E390E090930B0280930A0287E0F2
:1004700091E0909309028093080280E880930B0139
:1004800082E08093230280E390E00E9465047C0177
:10049000909321028093200280E390E00E94650403
:1004A000D7018D939C93F7019701225D3F4F819176
:1004B0009191029691838083E217F307C1F7D701E8
:1004C000ED91FC9180E3DF011D928A95E9F780E3CD
:1004D00090E00E9465047C0190931F0280931E02AD
:1004E00080E390E00E946504F70191838083970187
:1004F000225D3F4F81919191029691838083E21713
:10050000F307C1F7D701ED91FC9180E3DF011D9264
:100510008A95E9F780E091E00E94650490931D02BE
:1005200080931C0280E091E00E94650490932D026C
:1005300080932C02F8948091C00082608093C00068
:100540008091C10088698093C1008091C20086605B
:100550008093C2008091C2008E7F8093C20010926F
:10056000C5001092C4008091810089608093810051
:1005700086E69BE2909389008093880080916F00CB
:10058000826080936F007894809100028111FCCF8B
:1005900060902002709021022E01BFE74B1ABEEF3F
:1005A0005B0A41E01301E0E32E0E311C88248394A2
:1005B000912C80911B0280911302809114028091F2
:1005C0001502809116028091170280911802809185
:1005D000190280911A02CF57DE4F19830883C15840
:1005E000D140C80151E0652F617030E020E0DC01AE
:1005F000A20FB31F762F71707C932F5F3F4F6F5FF9
:1006000061702031310599F75F5F51704096841514
:10061000950549F76801F12CE12C30E020E0560106
:10062000A20EB31EC701820F931F63E070E00E9409
:100630003104BC0191E0672B09F090E0D5019C9357
:100640002F5F3F4F2031310551F7BFEFEB1AFB0A07
:10065000E0E1CE0ED11CF8E1EF16F104F1F6B8019D
:1006600030E020E090E080E07B01E80EF91ED90147
:10067000A80FB91FA370BB2751E0AB2B09F050E0C6
:10068000D7015C9301968031910571F72F5F3F4F41
:10069000605F7F4F2831310529F76801F12CE12C8B
:1006A00030E020E05601A20EB31EC701820F931F57
:1006B00065E070E00E943104BC0191E0672B09F015
:1006C00090E0F50190832F5F3F4F2031310551F7C6
:1006D000FFEFEF1AFF0A20E1C20ED11C38E1E3164A
:1006E000F104F1F66801F12CE12C30E020E0560134
:1006F000A20EB31EC701820F931F66E070E00E9436
:100700003104BC0191E0672B09F090E0D5019C9386
:100710002F5F3F4F2031310551F7BFEFEB1AFB0A36
:10072000E0E1CE0ED11CF8E1EF16F104F1F668011C
:10073000F12CE12C30E020E05601A20EB31EC701DF
:10074000820F931F67E070E00E943104BC0191E0CA
:10075000672B09F090E0D5019C932F5F3F4F20312C
:10076000310551F7BFEFEB1AFB0AE0E1CE0ED11CC9
:10077000F8E1EF16F104F1F6B80130E020E090E086
:1007800080E07B01E80EF91ED901A80FB91FA77000
:10079000BB2751E0AB2B09F050E0D7015C930196E9
:1007A0008031910571F72F5F3F4F605F7F4F283198
:1007B000310529F7D30150E090E080E0CF57DE4FBC
:1007C00028813981C158D140280F391FF901208172
:1007D000222339F09401082E01C0220F0A94EAF76F
:1007E000522B01968830910549F78D919C91119774
:1007F000FC01508350E090E080E0CF57DE4F28812D
:100800003981C158D140280F391FF9012085222391
:1008100039F09401082E01C0220F0A94EAF7522BF6
:1008200001968830910549F78D919D91FC01518386
:10083000CF57DE4F28813981C158D140205F3F4FCB
:10084000CF57DE4F39832883C158D1402A163B0643
:1008500009F0B1CF40930002809100028111FCCFDA
:10086000A8CE97FB072E16F4009407D077FD09D089
:100870000E94510407FC05D03EF4909581959F4F4E
:100880000895709561957F4F08950024A7FD009409
:100890002A0F301D401D501D601D701D801D901DB4
:1008A0000895AA1BBB1B51E107C0AA1FBB1FA617B7
:1008B000B70710F0A61BB70B881F991F5A95A9F709
:1008C00080959095BC01CD0108950F931F93CF9310
:1008D000DF938230910510F482E090E0E0913202E3
:1008E000F091330230E020E0B0E0A0E0309799F4DE
:1008F0002115310509F44AC0281B390B2430310574
:10090000D8F58A819B816115710589F1FB0193837B
:100910008283FE0111C040815181028113814817F9
:100920005907E0F04817590799F4109761F01296AB
:100930000C93129713961C933296CF01DF91CF91AF
:100940001F910F9108950093320210933302F4CF58
:100950002115310551F04217530738F0A901DB0189
:100960009A01BD01DF01F801C1CFEF01F9CF9093EA
:10097000330280933202CDCFFE01E20FF31F819349
:1009800091932250310939832883D7CF20913002A7
:1009900030913102232B41F4209104023091050261
:1009A00030933102209330022091020230910302F1
:1009B0002115310541F42DB73EB740910602509103
:1009C0000702241B350BE0913002F0913102E2174F
:1009D000F307A0F42E1B3F0B2817390778F0AC0162
:1009E0004E5F5F4F2417350748F04E0F5F1F50933F
:1009F000310240933002819391939FCFF0E0E0E089
:100A00009CCFCF93DF930097E9F0FC0132971382DC
:100A10001282A0913202B0913302ED0130E020E069
:100A20001097A1F420813181820F931F2091300211
:100A3000309131022817390709F061C0F093310273
:100A4000E0933002DF91CF910895EA01CE17DF07DE
:100A5000E8F54A815B819E0141155105B1F7E90135
:100A6000FB83EA8349915991C40FD51FEC17FD0709
:100A700061F4808191810296840F951FE901998329
:100A80008883828193819B838A83F0E0E0E01296E1
:100A90008D919C9113970097B9F52D913C911197E9
:100AA000CD010296820F931F2091300230913102C6
:100AB0002817390739F6309751F510923302109202
:100AC0003202B0933102A0933002BCCFD383C283F1
:100AD00040815181840F951FC817D90761F44E5F7B
:100AE0005F4F88819981480F591F518340838A81C4
:100AF0009B81938382832115310509F0B0CFF09358
:100B00003302E09332029ECFFD01DC01C0CF13829D
:080B10001282D7CFF894FFCF49
:080B180001010000340280001D
:00000001FF
