:100000000C9472000C9493000C9493000C94930045
:100010000C9493000C9493000C9493000C94930014
:100020000C9493000C9493000C9493000C94930004
:100030000C9493000C9493000C9493000C949300F4
:100040000C9493000C94E6000C9493000C94930091
:100050000C9493000C9493000C9493000C949300D4
:100060000C9493000C9493000C9493000C949300C4
:100070000C9493000C9493000C9493000C949300B4
:100080000C9493000C9493000C9493000C949300A4
:100090000C9493000C9493000C9493000C94930094
:1000A0000C9493000C9493000C9493000C94930084
:1000B0000C9493000C9493000C9493000C94930074
:1000C0000C9493000C9493000C9493000C94930064
:1000D0000C9493000C9493000C9495000C94930052
:1000E0000C94930011241FBECFEFD1E2DEBFCDBF31
:1000F00000E00CBF12E0A0E0B2E0E4E7F9E000E0CD
:100100000BBF02C007900D92A830B107D9F722E0CB
:10011000A8E0B2E001C01D92A433B207E1F70E944B
:100120001A020C94B8040C9400001F920F920FB6A0
:100130000F9211240BB60F922F938F939F93EF93EF
:10014000FF93809131018F778093310180912F024D
:10015000882399F08130E1F08091310180688093AB
:100160003101FF91EF919F918F912F910F900BBED5
:100170000F900FBE0F901F901895809136018B360F
:1001800019F410920102E8CF81E080930102E4CFDC
:100190008091360180932E0290E080E020912E0223
:1001A0002817190671F36CF32091300127FD03C065
:1001B000B19BFACFD1CF20913601E0912C02F09182
:1001C0002D02E80FF91F20830196E8CF1F920F92AE
:1001D0000FB60F9211240BB60F922F933F934F93AC
:1001E0005F936F937F938F939F93AF93BF93EF939F
:1001F000FF93CF93DF9300D01F92CDB7DEB78091EE
:100200002402811107C0809123028093220281E0A1
:1002100080932402909122028091230298130AC0B5
:1002200010922202E0912F02EE2309F470C0E13017
:1002300009F48BC0E0911102F091120280812081BB
:10024000A0910F02B09110029C91220F991F992743
:10025000991F922B90832C91E0910D02F0910E0248
:100260009081220F991F9927991F922B9C9390811F
:10027000990F881F8827881F892B8083E0911E0291
:10028000F0911F0280910C02282F30E0220F331FC3
:10029000A0910A02B0910B02E20FF31F0190F081CE
:1002A000E02D90819C9340911E0250911F0260911D
:1002B000080270910902240F351FF901A081B18154
:1002C00011969C91FB019083873109F0AFC080911A
:1002D00022028F5F8093220210920C020F900F90E7
:1002E0000F900F90DF91CF91FF91EF91BF91AF9160
:1002F0009F918F917F916F915F914F913F912F913E
:100300000F900BBE0F900FBE0F901F90189580910D
:100310000102882359F0813009F08CCF809130019F
:1003200085FFFCCF81E68093360184CF81E0809306
:100330002F02809301028091300185FFFCCF83E77B
:10034000809336011092000275CF809100028823BD
:1003500009F464C080912002909121029C838B83D8
:1003600080911E0290911F0290932102809320029F
:100370008B819C8190931F0280931E022091160214
:1003800030911702409118025091190260911A029F
:1003900070911B0280911C0290911D02A1E00E94AD
:1003A000870320931602309317024093180250934C
:1003B000190260931A0270931B0280931C0290939F
:1003C0001D0280910102882351F0813009F032CF63
:1003D00010922F028091300185FFFCCFA3CF809136
:1003E0002C0290912D029A8389838091140290911E
:1003F000150290932D0280932C0289819A8190930B
:1004000015028093140280912E0280931302E093D0
:1004100001028091300185FFFCCF91CF8091C00017
:1004200085FFFCCF8EE68093C60004CF8F5F80935C
:100430000C0254CFCF93DF93CDB7DEB7C158D14074
:100440000FB6F894DEBF0FBECDBF8FEF81B987B96D
:1004500080930A0182E290E090930E0280930D0255
:1004600088E290E09093100280930F028BE091E07D
:10047000909312028093110280E390E090930B021C
:1004800080930A0287E091E090930902809308022A
:1004900080E880930B0182E08093230280E390E068
:1004A0000E949303909321028093200200912002E6
:1004B0001091210280E390E00E949303D8018D9374
:1004C0009C9390E080E0E0912002F0912102E80FFF
:1004D000F91F20813181E0912002F09121020296E2
:1004E000E80FF91F2E5F3F4F318320838E32910535
:1004F00051F7E0912002F09121020190F081E02D6E
:1005000080E3DF011D928A95E9F780E390E00E9485
:10051000930390931F0280931E0200911E0210917C
:100520001F0280E390E00E949303F801918380838F
:1005300090E080E0E0911E02F0911F02E80FF91FA9
:1005400020813181E0911E02F0911F020296E80F96
:10055000F91F2E5F3F4F318320838E32910551F773
:10056000E0911E02F0911F020190F081E02D80E3E6
:10057000DF011D928A95E9F780E091E00E949303E4
:10058000909315028093140280E091E00E949303FF
:1005900090932D0280932C02F89480913001826018
:1005A000809330018091310188698093310180917D
:1005B0003201866080933201809132018E7F809378
:1005C000320110923501109234018091C000826096
:1005D0008093C0008091C10088698093C1008091A0
:1005E000C20086608093C2008091C2008E7F80939B
:1005F000C2001092C5001092C400809181008960F1
:100600008093810086E69BE2909389008093880026
:1006100080916F00826080936F00789480910002D7
:100620008111FCCF8E010F5F1F4F80E891E0F80130
:100630009C01119221503040E1F7EE24E394F12C1B
:10064000DD24D394809114029091150280911302BD
:1006500080911602809117028091180280911902F0
:1006600080911A0280911B0280911C0280911D02D0
:10067000A80130E020E0FA0170E060E0CF57DE4FE3
:100680001882C158D14090E080E0DF01A80FB91F67
:10069000AC91AA2389F0CF57DE4FA881C158D14031
:1006A0005701082E01C0AA0C0A94EAF7AA29CF57CD
:1006B000DE4FA883C158D14001968830910529F7B3
:1006C000A0912002B0912102CF57DE4F8881C158FE
:1006D000D140A20FB31F0D90BC91A02DA60FB71F44
:1006E0008C9338966130710579F42E5F3F4F405FEF
:1006F0005F4F2033310509F0BECFD09200028091C8
:1007000000028111FCCF9ECF61E070E0B7CF0024E2
:10071000A7FD00942A0F301D401D501D601D701D47
:10072000801D901D08950F931F93CF93DF93823008
:10073000910510F482E090E0E0913202F0913302F2
:1007400030E020E0B0E0A0E0309799F421153105C9
:1007500009F44AC0281B390B24303105D8F58A81A9
:100760009B816115710589F1FB0193838283FE01F1
:1007700011C0408151810281138148175907E0F06F
:100780004817590799F4109761F012960C93129735
:1007900013961C933296CF01DF91CF911F910F9149
:1007A00008950093320210933302F4CF21153105DE
:1007B00051F04217530738F0A901DB019A01BD013E
:1007C000DF01F801C1CFEF01F9CF9093330280939D
:1007D0003202CDCFFE01E20FF31F8193919322509D
:1007E000310939832883D7CF2091300230913102EB
:1007F000232B41F420910402309105023093310201
:10080000209330022091020230910302211531051C
:1008100041F42DB73EB74091060250910702241BC8
:10082000350BE0913002F0913102E217F307A0F4AA
:100830002E1B3F0B2817390778F0AC014E5F5F4F36
:100840002417350748F04E0F5F1F50933102409335
:100850003002819391939FCFF0E0E0E09CCFCF9363
:10086000DF930097E9F0FC01329713821282A09186
:100870003202B0913302ED0130E020E01097A1F494
:1008800020813181820F931F2091300230913102FB
:100890002817390709F061C0F0933102E093300264
:1008A000DF91CF910895EA01CE17DF07E8F54A817D
:1008B0005B819E0141155105B1F7E901FB83EA8394
:1008C00049915991C40FD51FEC17FD0761F4808140
:1008D00091810296840F951FE90199838883828113
:1008E00093819B838A83F0E0E0E012968D919C9146
:1008F00013970097B9F52D913C911197CD01029670
:10090000820F931F2091300230913102281739074E
:1009100039F6309751F51092330210923202B093AB
:100920003102A0933002BCCFD383C2834081518176
:10093000840F951FC817D90761F44E5F5F4F8881F8
:100940009981480F591F518340838A819B819383EA
:1009500082832115310509F0B0CFF0933302E09383
:1009600032029ECFFD01DC01C0CF13821282D7CFAD
:04097000F894FFCF29
:080974000101000034028000C3
:00000001FF
