:100000000C9472000C9493000C9493000C94930045
:100010000C9493000C9493000C9493000C94930014
:100020000C9493000C9493000C9493000C94930004
:100030000C9493000C9493000C9493000C949300F4
:100040000C9493000C94F7000C9493000C94930080
:100050000C9493000C9493000C9493000C949300D4
:100060000C9493000C9495000C9493000C949300C2
:100070000C9493000C9493000C9493000C949300B4
:100080000C9493000C9493000C9493000C949300A4
:100090000C9493000C9493000C9493000C94930094
:1000A0000C9493000C9493000C9493000C94930084
:1000B0000C9493000C9493000C9493000C94930074
:1000C0000C9493000C9493000C9493000C94930064
:1000D0000C9493000C9493000C9493000C94930054
:1000E0000C94930011241FBECFEFD1E2DEBFCDBF31
:1000F00000E00CBF12E0A0E0B2E0EAE0F9E000E0CE
:100100000BBF02C007900D92AA30B107D9F722E0C9
:10011000AAE0B2E001C01D92A933B207E1F70E9444
:1001200051020C9483040C9400001F920F920FB69E
:100130000F9211240BB60F922F933F934F938F93EF
:100140009F93EF93FF93789480910202823051F451
:10015000109234028FEF9FEF90933302809332021C
:100160008091020280913402811105C08091C0000B
:1001700082FB882780F9809334029091C6002091F9
:100180003102222381F02130D1F0FF91EF919F9134
:100190008F914F913F912F910F900BBE0F900FBEFB
:1001A0000F901F901895882321F081E08093020220
:1001B000ECCF82E09B36D1F710920202E6CF20917D
:1001C0003202309133022F3F320749F490933002CC
:1001D0002F5F3F4F3093330220933202E7CFE091FD
:1001E0002E02F0912F02E20FF31F9083F1CF1F92A6
:1001F0000F920FB60F9211240BB60F927F928F922F
:100200009F92AF92BF92CF92DF92EF92FF920F93A5
:100210001F932F933F934F935F936F937F938F938E
:100220009F93AF93BF93CF93DF93EF93FF93A090F0
:10023000250280912602811113C0A0921D02109206
:100240001E0210921F0210922002109221021092A0
:100250002202109223021092240281E0809326024F
:1002600020911D0290901E02D0911F02C091200289
:1002700070902102F0912202E0912302392D4D2F3E
:100280005C2F672D7F2F8E2F90912402B12CC12CD3
:10029000D12CE12CF12C00E010E00E94550351F428
:1002A00080913102882309F46FC0813009F491C034
:1002B000109200028091000240910C0250910D02B8
:1002C00021E030E0082E01C0220F0A94EAF7DA019B
:1002D0002C9320910A0230910B02D9011C92873194
:1002E00009F0DBC01092000280901D02A72DB09192
:1002F00024022091250230E040E050E060E070E010
:1003000080E090E05401CD2EDC2EE72CFF2E0E2F46
:100310001B2F0E94550341F4812C912CD0E0C0E0AA
:10032000A0E0F0E0E0E0B0E080921D0290921E02BA
:10033000D0931F02C0932002A0932102F0932202C7
:10034000E0932302B0932402FF91EF91DF91CF91CC
:10035000BF91AF919F918F917F916F915F914F91DD
:100360003F912F911F910F91FF90EF90DF90CF90D1
:10037000BF90AF909F908F907F900F900BBE0F908B
:100380000FBE0F901F901895809102028130D9F016
:1003900068F0823039F48091C00085FFFCCF81E69F
:1003A0008093C60082E08093020282CF8091C000D9
:1003B00085FFFCCF83E78093C60081E08093310204
:1003C00010920102EFCF8091C00085FFFCCF82E741
:1003D000E7CF80910102882309F46ACF80911B0244
:1003E00090911C022091190230911A0230931C0244
:1003F00020931B0290931A028093190280910202AB
:10040000882361F0823071F68091C00085FFFCCFB7
:1004100081E68093C60010923102C4CF80912E02F3
:1004200090912F02209117023091180230932F02E1
:1004300020932E029093180280931702809130022D
:10044000809316028091C00085FFFCCF83E78093E4
:10045000C60020910E0230910F024091100250917F
:100460001102609112027091130280911402909116
:100470001502A1E00E94490320930E0230930F025F
:100480004093100250931102609312027093130272
:10049000809314029093150293CF8F5F8093000294
:1004A00053CFCF93DF93CDB7DEB7C058D1400FB64F
:1004B000F894DEBF0FBECDBF82E290E090930D02B4
:1004C00080930C0281E390E090930B0280930A02E8
:1004D00082E08093250280E390E00E945E038C011D
:1004E00090931C0280931B0280E891E00E945E03BF
:1004F000D8018D939C93F8019801225D3F4F819123
:100500009191409691838083E217F307C1F7D80158
:10051000ED91FC9180E3DF011D928A95E9F780E37C
:1005200090E00E945E038C0190931A02809319025E
:1005300080E891E00E945E03F80191838083980136
:10054000225D3F4F81919191409691838083E21784
:10055000F307C1F7D801ED91FC9180E3DF011D9213
:100560008A95E9F780E091E00E945E03909318027B
:100570008093170280E091E00E945E0390932F0227
:1005800080932E02F8948091C10088698093C10005
:100590008091C20086628093C2008091C2008E7FEB
:1005A0008093C2001092C5001092C4008091810017
:1005B00089608093810080916F00826080936F00DA
:1005C00086E69BE2909389008093880078948091DE
:1005D00001028111FCCF80E3F82E8E010F571E4FD0
:1005E000EE24E39480910E0280910F02809110021C
:1005F0008091110280911202809113028091140265
:1006000080911502E0911B02F0911C02DF018F2DF9
:100610001D928A95E9F79E012F5F3F4F6FE070E0D2
:1006200090E080E0A080B180883091050CF5AB01AE
:1006300048505109420F531FDA014C91082E01C056
:10064000440F0A94EAF7D5014C9301966150710961
:100650008031910539F7205F3F4F329620173107DF
:10066000E9F6E0920102809101028111FCCFBACF3C
:10067000A901460F571FDA014C916C01B8E0CB1A63
:10068000D10801C0440FCA94EAF7D50111964C93E2
:10069000DCCF0024A7FD00942A0F301D401D501D03
:1006A000601D701D801D901D08952A153B054C0589
:1006B0005D056E057F058007910708950F931F93D1
:1006C000CF93DF938230910510F482E090E0E091C7
:1006D0003702F091380230E020E0B0E0A0E030973F
:1006E00099F42115310509F44AC0281B390B24302F
:1006F0003105D8F58A819B816115710589F1FB016E
:1007000093838283FE0111C0408151810281138154
:1007100048175907E0F04817590799F4109761F006
:1007200012960C93129713961C933296CF01DF9179
:10073000CF911F910F9108950093370210933802C3
:10074000F4CF2115310551F04217530738F0A901B4
:10075000DB019A01BD01DF01F801C1CFEF01F9CF43
:100760009093380280933702CDCFFE01E20FF31F42
:10077000819391932250310939832883D7CF2091D7
:10078000350230913602232B41F42091050230913D
:1007900006023093360220933502209103023091F5
:1007A00004022115310541F42DB73EB740910702EF
:1007B00050910802241B350BE0913502F09136026E
:1007C000E217F307A0F42E1B3F0B2817390778F028
:1007D000AC014E5F5F4F2417350748F04E0F5F1F87
:1007E0005093360240933502819391939FCFF0E06E
:1007F000E0E09CCFCF93DF930097E9F0FC013297C4
:1008000013821282A0913702B0913802ED0130E0DC
:1008100020E01097A1F420813181820F931F209155
:100820003502309136022817390709F061C0F0937C
:100830003602E0933502DF91CF910895EA01CE1799
:10084000DF07E8F54A815B819E0141155105B1F74B
:10085000E901FB83EA8349915991C40FD51FEC1735
:10086000FD0761F4808191810296840F951FE90153
:1008700099838883828193819B838A83F0E0E0E07F
:1008800012968D919C9113970097B9F52D913C91FB
:100890001197CD010296820F931F2091350230915E
:1008A00036022817390739F6309751F51092380279
:1008B00010923702B0933602A0933502BCCFD38397
:1008C000C28340815181840F951FC817D90761F4F5
:1008D0004E5F5F4F88819981480F591F5183408334
:1008E0008A819B81938382832115310509F0B0CFE2
:1008F000F0933802E09337029ECFFD01DC01C0CFB8
:0A09000013821282D7CFF894FFCFC4
:0A090A00170102000039028000000E
:00000001FF
