:100000000C9472000C9493000C9493000C94930045
:100010000C9493000C9493000C9493000C94930014
:100020000C9493000C9493000C9493000C94930004
:100030000C9493000C9493000C9493000C949300F4
:100040000C9493000C94F6000C9493000C94930081
:100050000C9493000C9493000C9493000C949300D4
:100060000C9493000C9495000C9493000C949300C2
:100070000C9493000C9493000C9493000C949300B4
:100080000C9493000C9493000C9493000C949300A4
:100090000C9493000C9493000C9493000C94930094
:1000A0000C9493000C9493000C9493000C94930084
:1000B0000C9493000C9493000C9493000C94930074
:1000C0000C9493000C9493000C9493000C94930064
:1000D0000C9493000C9493000C9493000C94930054
:1000E0000C94930011241FBECFEFD1E2DEBFCDBF31
:1000F00000E00CBF12E0A0E0B2E0E8E4F8E000E0CD
:100100000BBF02C007900D92A830B107D9F722E0CB
:10011000A8E0B2E001C01D92A133B207E1F70E944E
:10012000ED010C9422040C9400001F920F920FB664
:100130000F9211240BB60F922F933F934F938F93EF
:100140009F93EF93FF9380910102823051F41092BC
:100150002C028FEF9FEF90932B0280932A028091C5
:10016000010280912C02811105C08091C00082FBA8
:10017000882780F980932C029091C6002091290253
:10018000222381F02130D1F0FF91EF919F918F9147
:100190004F913F912F910F900BBE0F900FBE0F907C
:1001A0001F901895882321F081E080930102ECCF05
:1001B00082E09B36D1F710920102E6CF20912A020D
:1001C00030912B022F3F320749F4909328022F5F82
:1001D0003F4F30932B0220932A02E7CFE091260273
:1001E000F0912702E20FF31F9083F1CF1F920F923D
:1001F0000FB60F9211240BB60F922F933F934F938C
:100200005F936F937F938F939F93AF93EF93FF933E
:1002100080911D0290911E02911105C080931C02D5
:1002200091E090931E0290911C02981309C01092C5
:100230001C02809129028823B1F1813009F461C048
:1002400080910C02E0910A02F0910B0221E030E073
:10025000082E01C0220F0A94EAF72083982F909568
:1002600091709195E0910802F09109029083873195
:1002700009F0AFC080911C028F5F80931C02109226
:100280000C02FF91EF91AF919F918F917F916F91B0
:100290005F914F913F912F910F900BBE0F900FBE2A
:1002A0000F901F901895809101028130F9F060F055
:1002B000823031F68091C00085FFFCCF81E68093CB
:1002C000C60010920102BCCF81E08093290282E037
:1002D000809301028091C00085FFFCCF83E780936B
:1002E000C6001092010210920002AACF82E0809311
:1002F00001028091C00085FFFCCF82E78093C60099
:100300009FCF80910002882309F49ACF80911A022E
:1003100090911B02209118023091190230931B0218
:1003200020931A029093190280931802809101027F
:10033000882359F0823009F083CF109229028091EE
:10034000C00085FFFCCF81E6D9CF80912602909135
:100350002702209116023091170230932702209332
:1003600026029093170280931602809128028093B0
:10037000150282E0809301028091C00085FFFCCFCE
:1003800083E78093C6001092010220910D02309104
:100390000E0240910F025091100260911102709173
:1003A00012028091130290911402A1E00E94F102C6
:1003B00020930D0230930E0240930F0250931002CF
:1003C00060931102709312028093130290931402AF
:1003D0008ACF8F5F80930C0254CFCF93DF93CDB73A
:1003E000DEB7C058D1400FB6F894DEBF0FBECDBF08
:1003F0008FEF81B987B980930A0122E230E0309310
:100400000B0220930A0220E330E03093090220938C
:10041000080280BB82E080931D0280E390E00E948E
:10042000FD028C0190931B0280931A0280E390E0FE
:100430000E94FD02D8018D939C93F8019801225DE2
:100440003F4F819191910296918380832E173F07B0
:10045000C1F7D801ED91FC9180E3DF011D928A95EF
:10046000E9F780E390E00E94FD028C01909319026D
:100470008093180280E390E00E94FD02F8019183CE
:1004800080839801225D3F4F8191919102969183E3
:100490008083E217F307C1F7D801ED91FC9180E367
:1004A000DF011D928A95E9F780E091E00E94FD024C
:1004B000909317028093160280E091E00E94FD0263
:1004C0009093270280932602F8948091C000826066
:1004D0008093C0008091C10088698093C1008091A1
:1004E000C20086628093C2008091C2008E7F80939A
:1004F000C2001092C5001092C400809181008960F2
:100500008093810086E69BE2909389008093880027
:1005100080916F00826080936F00789480910002D8
:100520008111FCCF60911A0270911B028B01005D5A
:100530001F4FCC24C394D12C51E080910D028091A7
:100540000E0280910F028091100280911102809121
:1005500012028091130280911402FB019E012F5F11
:100560003F4F40E090E080E07901E80EF91ED701AE
:10057000FC90FF2039F07601082E01C0EE0C0A94A1
:10058000EAF74E2901968830910571F780819181B3
:10059000DC014C9340E090E080E07901E80EF91E28
:1005A000D7011896FC90FF2039F07601082E01C083
:1005B000EE0C0A94EAF74E2901968830910569F706
:1005C00081919191DC0111964C93205F3F4F0E1762
:1005D0001F0739F650930002809100028111FCCF71
:1005E000ACCF0024A7FD00942A0F301D401D501DE4
:1005F000601D701D801D901D08950F931F93CF9354
:10060000DF938230910510F482E090E0E0912F02B8
:10061000F091300230E020E0B0E0A0E0309799F4B3
:100620002115310509F44AC0281B390B2430310546
:10063000D8F58A819B816115710589F1FB0193834E
:100640008283FE0111C040815181028113814817CC
:100650005907E0F04817590799F4109761F012967E
:100660000C93129713961C933296CF01DF91CF9182
:100670001F910F91089500932F0210933002F4CF31
:100680002115310551F04217530738F0A901DB015C
:100690009A01BD01DF01F801C1CFEF01F9CF9093BD
:1006A000300280932F02CDCFFE01E20FF31F819322
:1006B00091932250310939832883D7CF20912D027D
:1006C00030912E02232B41F4209104023091050237
:1006D00030932E0220932D022091020230910302CA
:1006E0002115310541F42DB73EB7409106025091D6
:1006F0000702241B350BE0912D02F0912E02E21728
:10070000F307A0F42E1B3F0B2817390778F0AC0134
:100710004E5F5F4F2417350748F04E0F5F1F509311
:100720002E0240932D02819391939FCFF0E0E0E061
:100730009CCFCF93DF930097E9F0FC0132971382AF
:100740001282A0912F02B0913002ED0130E020E042
:100750001097A1F420813181820F931F20912D02E7
:1007600030912E022817390709F061C0F0932E024C
:10077000E0932D02DF91CF910895EA01CE17DF07B4
:10078000E8F54A815B819E0141155105B1F7E90108
:10079000FB83EA8349915991C40FD51FEC17FD07DC
:1007A00061F4808191810296840F951FE9019983FC
:1007B0008883828193819B838A83F0E0E0E01296B4
:1007C0008D919C9113970097B9F52D913C911197BC
:1007D000CD010296820F931F20912D0230912E029F
:1007E0002817390739F6309751F5109230021092D8
:1007F0002F02B0932E02A0932D02BCCFD383C283CD
:1008000040815181840F951FC817D90761F44E5F4D
:100810005F4F88819981480F591F518340838A8196
:100820009B81938382832115310509F0B0CFF0932A
:100830003002E0932F029ECFFD01DC01C0CF138276
:080840001282D7CFF894FFCF1C
:080848000102000031028000F2
:00000001FF
