:100000000C9434000C943E000C943E000C943E0082
:100010000C943E000C943E000C943E000C943E0068
:100020000C943E000C943E000C943E000C943E0058
:100030000C943E000C943E000C943E000C943E0048
:100040000C943E000C943E000C9440000C943E0036
:100050000C943E000C943E000C943E000C943E0028
:100060000C943E000C943E0011241FBECFEFD8E04C
:10007000DEBFCDBF0E9467000C947C000C94000092
:100080001F920F920FB60F9211248F938091C6008A
:10009000813641F0833771F08F910F900FBE0F9032
:1000A0001F9018958091C00085FFFCCF8BE6809350
:1000B000C600F2CF8091C00085FFFCCF81E0809325
:1000C000C6008091C00085FFFCCF82E7F0CF809111
:1000D000C10088698093C1008091C20086628093CC
:1000E000C2008091C2008E7F8093C2001092C50032
:0C00F0001092C4007894FFCFF894FFCF6A
:00000001FF
